{
  "address": "0x85Ff7eE82C6b65e483db10609F004b1ab347a7BD",
  "abi": [
    {
      "inputs": [],
      "stateMutability": "nonpayable",
      "type": "constructor"
    },
    {
      "anonymous": false,
      "inputs": [
        {
          "indexed": false,
          "internalType": "uint256",
          "name": "amount",
          "type": "uint256"
        }
      ],
      "name": "Burned",
      "type": "event"
    },
    {
      "anonymous": false,
      "inputs": [
        {
          "indexed": false,
          "internalType": "uint8",
          "name": "version",
          "type": "uint8"
        }
      ],
      "name": "Initialized",
      "type": "event"
    },
    {
      "anonymous": false,
      "inputs": [
        {
          "indexed": false,
          "internalType": "uint256",
          "name": "prevMaxCap",
          "type": "uint256"
        },
        {
          "indexed": false,
          "internalType": "uint256",
          "name": "newMaxCap",
          "type": "uint256"
        }
      ],
      "name": "MaxCapSet",
      "type": "event"
    },
    {
      "anonymous": false,
      "inputs": [
        {
          "indexed": true,
          "internalType": "address",
          "name": "previousOwner",
          "type": "address"
        },
        {
          "indexed": true,
          "internalType": "address",
          "name": "newOwner",
          "type": "address"
        }
      ],
      "name": "OwnershipTransferred",
      "type": "event"
    },
    {
      "anonymous": false,
      "inputs": [
        {
          "indexed": false,
          "internalType": "enum IRtknToPrimeConverter.Phase",
          "name": "newPhase",
          "type": "uint8"
        },
        {
          "indexed": false,
          "internalType": "uint256",
          "name": "scalingFactor",
          "type": "uint256"
        }
      ],
      "name": "PhaseStarted",
      "type": "event"
    },
    {
      "anonymous": false,
      "inputs": [
        {
          "indexed": true,
          "internalType": "address",
          "name": "user",
          "type": "address"
        },
        {
          "indexed": false,
          "internalType": "uint256",
          "name": "amount",
          "type": "uint256"
        }
      ],
      "name": "Pledged",
      "type": "event"
    },
    {
      "anonymous": false,
      "inputs": [
        {
          "indexed": true,
          "internalType": "address",
          "name": "user",
          "type": "address"
        },
        {
          "indexed": false,
          "internalType": "uint256",
          "name": "adjustedPledgedAmount",
          "type": "uint256"
        },
        {
          "indexed": false,
          "internalType": "uint256",
          "name": "excessAmount",
          "type": "uint256"
        }
      ],
      "name": "UserProcessed",
      "type": "event"
    },
    {
      "anonymous": false,
      "inputs": [
        {
          "indexed": true,
          "internalType": "address",
          "name": "owner",
          "type": "address"
        },
        {
          "indexed": false,
          "internalType": "uint256",
          "name": "amount",
          "type": "uint256"
        }
      ],
      "name": "Withdrawal",
      "type": "event"
    },
    {
      "inputs": [],
      "name": "CONVERSION_RATIO",
      "outputs": [
        {
          "internalType": "uint256",
          "name": "",
          "type": "uint256"
        }
      ],
      "stateMutability": "view",
      "type": "function"
    },
    {
      "inputs": [],
      "name": "burnRTKNs",
      "outputs": [],
      "stateMutability": "nonpayable",
      "type": "function"
    },
    {
      "inputs": [],
      "name": "currentBatchIndex",
      "outputs": [
        {
          "internalType": "uint256",
          "name": "",
          "type": "uint256"
        }
      ],
      "stateMutability": "view",
      "type": "function"
    },
    {
      "inputs": [],
      "name": "currentPhase",
      "outputs": [
        {
          "internalType": "enum IRtknToPrimeConverter.Phase",
          "name": "",
          "type": "uint8"
        }
      ],
      "stateMutability": "view",
      "type": "function"
    },
    {
      "inputs": [],
      "name": "getTotalUsers",
      "outputs": [
        {
          "internalType": "uint256",
          "name": "",
          "type": "uint256"
        }
      ],
      "stateMutability": "view",
      "type": "function"
    },
    {
      "inputs": [
        {
          "internalType": "address",
          "name": "_rTKNAddress",
          "type": "address"
        },
        {
          "internalType": "uint256",
          "name": "_rRTKNMaxCap",
          "type": "uint256"
        }
      ],
      "name": "initialize",
      "outputs": [],
      "stateMutability": "nonpayable",
      "type": "function"
    },
    {
      "inputs": [],
      "name": "owner",
      "outputs": [
        {
          "internalType": "address",
          "name": "",
          "type": "address"
        }
      ],
      "stateMutability": "view",
      "type": "function"
    },
    {
      "inputs": [
        {
          "internalType": "uint256",
          "name": "amount",
          "type": "uint256"
        }
      ],
      "name": "pledgerTKN",
      "outputs": [],
      "stateMutability": "nonpayable",
      "type": "function"
    },
    {
      "inputs": [
        {
          "internalType": "address",
          "name": "user",
          "type": "address"
        }
      ],
      "name": "previewFuturePrimeAmountBasedOnPledgedAmountForUser",
      "outputs": [
        {
          "internalType": "uint256",
          "name": "",
          "type": "uint256"
        }
      ],
      "stateMutability": "view",
      "type": "function"
    },
    {
      "inputs": [
        {
          "internalType": "uint256",
          "name": "batchSize",
          "type": "uint256"
        }
      ],
      "name": "processUsers",
      "outputs": [],
      "stateMutability": "nonpayable",
      "type": "function"
    },
    {
      "inputs": [],
      "name": "rRTKNMaxCap",
      "outputs": [
        {
          "internalType": "uint256",
          "name": "",
          "type": "uint256"
        }
      ],
      "stateMutability": "view",
      "type": "function"
    },
    {
      "inputs": [],
      "name": "rTKN",
      "outputs": [
        {
          "internalType": "contract ERC20BurnableUpgradeable",
          "name": "",
          "type": "address"
        }
      ],
      "stateMutability": "view",
      "type": "function"
    },
    {
      "inputs": [],
      "name": "renounceOwnership",
      "outputs": [],
      "stateMutability": "nonpayable",
      "type": "function"
    },
    {
      "inputs": [],
      "name": "scalingFactor",
      "outputs": [
        {
          "internalType": "uint256",
          "name": "",
          "type": "uint256"
        }
      ],
      "stateMutability": "view",
      "type": "function"
    },
    {
      "inputs": [
        {
          "internalType": "uint256",
          "name": "_newMaxCap",
          "type": "uint256"
        }
      ],
      "name": "setRTKNMaxCap",
      "outputs": [],
      "stateMutability": "nonpayable",
      "type": "function"
    },
    {
      "inputs": [],
      "name": "startPhase2",
      "outputs": [],
      "stateMutability": "nonpayable",
      "type": "function"
    },
    {
      "inputs": [],
      "name": "totalAdjustedrTKNPledged",
      "outputs": [
        {
          "internalType": "uint256",
          "name": "",
          "type": "uint256"
        }
      ],
      "stateMutability": "view",
      "type": "function"
    },
    {
      "inputs": [],
      "name": "totalrTKNPledged",
      "outputs": [
        {
          "internalType": "uint256",
          "name": "",
          "type": "uint256"
        }
      ],
      "stateMutability": "view",
      "type": "function"
    },
    {
      "inputs": [
        {
          "internalType": "address",
          "name": "newOwner",
          "type": "address"
        }
      ],
      "name": "transferOwnership",
      "outputs": [],
      "stateMutability": "nonpayable",
      "type": "function"
    },
    {
      "inputs": [
        {
          "internalType": "address",
          "name": "",
          "type": "address"
        }
      ],
      "name": "userProcessed",
      "outputs": [
        {
          "internalType": "bool",
          "name": "",
          "type": "bool"
        }
      ],
      "stateMutability": "view",
      "type": "function"
    },
    {
      "inputs": [
        {
          "internalType": "address",
          "name": "",
          "type": "address"
        }
      ],
      "name": "userrTKNPledged",
      "outputs": [
        {
          "internalType": "uint256",
          "name": "",
          "type": "uint256"
        }
      ],
      "stateMutability": "view",
      "type": "function"
    },
    {
      "inputs": [
        {
          "internalType": "uint256",
          "name": "",
          "type": "uint256"
        }
      ],
      "name": "users",
      "outputs": [
        {
          "internalType": "address",
          "name": "",
          "type": "address"
        }
      ],
      "stateMutability": "view",
      "type": "function"
    },
    {
      "inputs": [],
      "name": "withdrawrTKN",
      "outputs": [],
      "stateMutability": "nonpayable",
      "type": "function"
    }
  ],
  "transactionHash": "0xe91791b93f7dba3be1ce5866a1319c282c8c70edf618b54df42a7964d40e8ad5",
  "args": [],
  "numDeployments": 2,
  "solcInputHash": "00981f0fee65eb7fec3f158b69843869",
  "bytecode": "0x608060405234801561001057600080fd5b5061001961001e565b6100dd565b600054610100900460ff161561008a5760405162461bcd60e51b815260206004820152602760248201527f496e697469616c697a61626c653a20636f6e747261637420697320696e697469604482015266616c697a696e6760c81b606482015260840160405180910390fd5b60005460ff908116146100db576000805460ff191660ff9081179091556040519081527f7f26b83ff96e1f2b6a682f133852f6798a09c465da95921460cefb38474024989060200160405180910390a15b565b6115f9806100ec6000396000f3fe608060405234801561001057600080fd5b506004361061011d5760003560e01c8063055ad42e1461012257806324f6334214610145578063291a9f18146101785780632adce76d146101a6578063365b98b2146101b057806345294596146101d05780636090b30e146101e3578063715018a6146101ec578063793e438c146101f45780638da5cb5b146101fc5780639be572f6146102045780639ed2bbc31461020c578063a8977b2514610215578063a97379d014610224578063b3fc07e314610237578063c535e89d14610240578063cd6dc68714610253578063ce6d6f6214610266578063d25067001461026f578063d3d9dac914610282578063ed3437f814610295578063f2fde38b1461029e578063fcb5bc29146102b1575b600080fd5b60995461012f9060ff1681565b60405161013c919061133c565b60405180910390f35b610168610153366004611366565b609b6020526000908152604090205460ff1681565b604051901515815260200161013c565b610198610186366004611366565b609a6020526000908152604090205481565b60405190815260200161013c565b6101ae6102b9565b005b6101c36101be366004611388565b61043e565b60405161013c91906113a1565b6097546101c3906001600160a01b031681565b61019860a05481565b6101ae610468565b6101ae61047a565b6101c3610600565b609c54610198565b61019860985481565b610198670b36a5d42ee316f881565b610198610232366004611366565b61060f565b610198609d5481565b6101ae61024e366004611388565b610655565b6101ae6102613660046113b5565b610725565b610198609e5481565b6101ae61027d366004611388565b610936565b6101ae610290366004611388565b610af2565b610198609f5481565b6101ae6102ac366004611366565b610cc9565b6101ae610d3f565b6102c1610e2b565b6102c9610e8a565b600160995460ff1660018111156102e2576102e2611304565b146103085760405162461bcd60e51b81526004016102ff906113df565b60405180910390fd5b609c5460a054146103555760405162461bcd60e51b815260206004820152601760248201527650726f63657373696e67206e6f7420636f6d706c65746560481b60448201526064016102ff565b6097546040516370a0823160e01b81526000916001600160a01b0316906370a08231906103869030906004016113a1565b602060405180830381865afa1580156103a3573d6000803e3d6000fd5b505050506040513d601f19601f820116820180604052508101906103c7919061140b565b90506103e76103d4610600565b6097546001600160a01b03169083610ee3565b6103ef610600565b6001600160a01b03167f7fcf532c15f0a6db0bd6d0e038bea71d30d808c7d98cb3bf7268a95bf5081b658260405161042991815260200190565b60405180910390a25061043c6001606555565b565b609c818154811061044e57600080fd5b6000918252602090912001546001600160a01b0316905081565b610470610e2b565b61043c6000610f4d565b610482610e2b565b600060995460ff16600181111561049b5761049b611304565b146104f35760405162461bcd60e51b815260206004820152602260248201527f43616e6e6f74206275726e2052544b4e7320696e2063757272656e7420706861604482015261736560f01b60648201526084016102ff565b6097546040516370a0823160e01b81526000916001600160a01b0316906370a08231906105249030906004016113a1565b602060405180830381865afa158015610541573d6000803e3d6000fd5b505050506040513d601f19601f82011682018060405250810190610565919061140b565b609754604051630852cd8d60e31b8152600481018390529192506001600160a01b0316906342966c6890602401600060405180830381600087803b1580156105ac57600080fd5b505af11580156105c0573d6000803e3d6000fd5b505050507fd83c63197e8e676d80ab0122beba9a9d20f3828839e9a1d6fe81d242e9cd7e6e816040516105f591815260200190565b60405180910390a150565b6033546001600160a01b031690565b6001600160a01b0381166000908152609a6020526040812054670de0b6b3a76400009061064590670b36a5d42ee316f89061143a565b61064f9190611451565b92915050565b61065d610e2b565b600060995460ff16600181111561067657610676611304565b1480156106835750609d54155b6106e45760405162461bcd60e51b815260206004820152602c60248201527f43616e6e6f74206368616e67652063617020616674657220706c656467696e6760448201526b081a185cc81cdd185c9d195960a21b60648201526084016102ff565b60985460408051918252602082018390527f5ff4c16eb2f1e86002943cbdbc5ff22d12e9674b18580610efb9084a2cccc0de910160405180910390a1609855565b600054610100900460ff16158080156107455750600054600160ff909116105b80610766575061075430610f9f565b158015610766575060005460ff166001145b6107c95760405162461bcd60e51b815260206004820152602e60248201527f496e697469616c697a61626c653a20636f6e747261637420697320616c72656160448201526d191e481a5b9a5d1a585b1a5e995960921b60648201526084016102ff565b6000805460ff1916600117905580156107ec576000805461ff0019166101001790555b6001600160a01b03831661083a5760405162461bcd60e51b8152602060048201526015602482015274496e76616c696420746f6b656e206164647265737360581b60448201526064016102ff565b600082116108945760405162461bcd60e51b815260206004820152602160248201527f4d617820636170206d7573742062652067726561746572207468616e207a65726044820152606f60f81b60648201526084016102ff565b61089c610fae565b6108a4610fdd565b6108c173dfa6706fc583b635cd6daf0e3915901a2fbabaad610f4d565b609780546001600160a01b0319166001600160a01b03851617905560988290556099805460ff191690558015610931576000805461ff0019169055604051600181527f7f26b83ff96e1f2b6a682f133852f6798a09c465da95921460cefb38474024989060200160405180910390a15b505050565b61093e610e8a565b600060995460ff16600181111561095757610957611304565b146109b25760405162461bcd60e51b815260206004820152602560248201527f506c656467696e67206e6f7420616c6c6f77656420696e2063757272656e7420604482015264706861736560d81b60648201526084016102ff565b60008111610a025760405162461bcd60e51b815260206004820181905260248201527f416d6f756e74206d7573742062652067726561746572207468616e207a65726f60448201526064016102ff565b609754610a1a906001600160a01b031633308461100c565b336000908152609a60205260408120549003610a7357609c80546001810182556000919091527faf85b9071dfafeac1409d3f1d19bafc9bc7c37974cde8df0ee6168f0086e539c0180546001600160a01b031916331790555b336000908152609a602052604081208054839290610a92908490611473565b9250508190555080609d6000828254610aab9190611473565b909155505060405181815233907f2726ce6e3b7987cbbb10c5a55b44725526c540fbba590cfc20afab691fa45edf9060200160405180910390a2610aef6001606555565b50565b610afa610e8a565b600160995460ff166001811115610b1357610b13611304565b14610b305760405162461bcd60e51b81526004016102ff906113df565b609c5460a054600090610b44908490611473565b905081811115610b515750805b60a0545b81811015610cba576000609c8281548110610b7257610b72611486565b60009182526020808320909101546001600160a01b0316808352609b90915260409091205490915060ff16610ca7576001600160a01b0381166000908152609a6020526040812054609f54909190670de0b6b3a764000090610bd4908461143a565b610bde9190611451565b90506000610bec828461149c565b90508015610c0b57609754610c0b906001600160a01b03168583610ee3565b6001600160a01b0384166000908152609a60205260408120839055609e8054849290610c38908490611473565b90915550506001600160a01b0384166000818152609b602052604090819020805460ff19166001179055517f8e2a75d637409d0001aaa57de17e32df76c036b8144ce8670a8858620155809390610c9b9085908590918252602082015260400190565b60405180910390a25050505b5080610cb2816114af565b915050610b55565b5060a05550610aef6001606555565b610cd1610e2b565b6001600160a01b038116610d365760405162461bcd60e51b815260206004820152602660248201527f4f776e61626c653a206e6577206f776e657220697320746865207a65726f206160448201526564647265737360d01b60648201526084016102ff565b610aef81610f4d565b610d47610e2b565b600060995460ff166001811115610d6057610d60611304565b14610da25760405162461bcd60e51b815260206004820152601260248201527120b63932b0b23c9034b710283430b9b2901960711b60448201526064016102ff565b6099805460ff19166001179055609d546098548111610dcc57670de0b6b3a7640000609f55610df1565b80609854670de0b6b3a7640000610de3919061143a565b610ded9190611451565b609f555b609954609f546040517f07ae9ff1ff5922feb7221008b80a606dce2b123504acb459285fc38250e06397926105f59260ff909116916114c8565b33610e34610600565b6001600160a01b03161461043c5760405162461bcd60e51b815260206004820181905260248201527f4f776e61626c653a2063616c6c6572206973206e6f7420746865206f776e657260448201526064016102ff565b600260655403610edc5760405162461bcd60e51b815260206004820152601f60248201527f5265656e7472616e637947756172643a207265656e7472616e742063616c6c0060448201526064016102ff565b6002606555565b6040516001600160a01b03831660248201526044810182905261093190849063a9059cbb60e01b906064015b60408051601f198184030181529190526020810180516001600160e01b03166001600160e01b03199093169290921790915261104a565b6001606555565b603380546001600160a01b038381166001600160a01b0319831681179093556040519116919082907f8be0079c531659141344cd1fd0a4f28419497f9722a3daafe3b4186f6b6457e090600090a35050565b6001600160a01b03163b151590565b600054610100900460ff16610fd55760405162461bcd60e51b81526004016102ff906114e3565b61043c61111f565b600054610100900460ff166110045760405162461bcd60e51b81526004016102ff906114e3565b61043c61114f565b6040516001600160a01b03808516602483015283166044820152606481018290526110449085906323b872dd60e01b90608401610f0f565b50505050565b600061109f826040518060400160405280602081526020017f5361666545524332303a206c6f772d6c6576656c2063616c6c206661696c6564815250856001600160a01b03166111769092919063ffffffff16565b90508051600014806110c05750808060200190518101906110c0919061152e565b6109315760405162461bcd60e51b815260206004820152602a60248201527f5361666545524332303a204552433230206f7065726174696f6e20646964206e6044820152691bdd081cdd58d8d9595960b21b60648201526084016102ff565b600054610100900460ff166111465760405162461bcd60e51b81526004016102ff906114e3565b61043c33610f4d565b600054610100900460ff16610f465760405162461bcd60e51b81526004016102ff906114e3565b6060611185848460008561118d565b949350505050565b6060824710156111ee5760405162461bcd60e51b815260206004820152602660248201527f416464726573733a20696e73756666696369656e742062616c616e636520666f6044820152651c8818d85b1b60d21b60648201526084016102ff565b600080866001600160a01b0316858760405161120a9190611574565b60006040518083038185875af1925050503d8060008114611247576040519150601f19603f3d011682016040523d82523d6000602084013e61124c565b606091505b509150915061125d87838387611268565b979650505050505050565b606083156112d55782516000036112ce5761128285610f9f565b6112ce5760405162461bcd60e51b815260206004820152601d60248201527f416464726573733a2063616c6c20746f206e6f6e2d636f6e747261637400000060448201526064016102ff565b5081611185565b61118583838151156112ea5781518083602001fd5b8060405162461bcd60e51b81526004016102ff9190611590565b634e487b7160e01b600052602160045260246000fd5b6002811061133857634e487b7160e01b600052602160045260246000fd5b9052565b6020810161064f828461131a565b80356001600160a01b038116811461136157600080fd5b919050565b60006020828403121561137857600080fd5b6113818261134a565b9392505050565b60006020828403121561139a57600080fd5b5035919050565b6001600160a01b0391909116815260200190565b600080604083850312156113c857600080fd5b6113d18361134a565b946020939093013593505050565b60208082526012908201527126bab9ba1031329034b710283430b9b2901960711b604082015260600190565b60006020828403121561141d57600080fd5b5051919050565b634e487b7160e01b600052601160045260246000fd5b808202811582820484141761064f5761064f611424565b60008261146e57634e487b7160e01b600052601260045260246000fd5b500490565b8082018082111561064f5761064f611424565b634e487b7160e01b600052603260045260246000fd5b8181038181111561064f5761064f611424565b6000600182016114c1576114c1611424565b5060010190565b604081016114d6828561131a565b8260208301529392505050565b6020808252602b908201527f496e697469616c697a61626c653a20636f6e7472616374206973206e6f74206960408201526a6e697469616c697a696e6760a81b606082015260800190565b60006020828403121561154057600080fd5b8151801515811461138157600080fd5b60005b8381101561156b578181015183820152602001611553565b50506000910152565b60008251611586818460208701611550565b9190910192915050565b60208152600082518060208401526115af816040850160208701611550565b601f01601f1916919091016040019291505056fea2646970667358221220ff018df6e39200e94ed4e63ee4fa362cf3ee89133f3ec9d3dad85a7f78ad5f4b64736f6c63430008110033",
  "devdoc": {
    "kind": "dev",
    "methods": {
      "owner()": {
        "details": "Returns the address of the current owner."
      },
      "renounceOwnership()": {
        "details": "Leaves the contract without owner. It will not be possible to call `onlyOwner` functions. Can only be called by the current owner. NOTE: Renouncing ownership will leave the contract without an owner, thereby disabling any functionality that is only available to the owner."
      },
      "transferOwnership(address)": {
        "details": "Transfers ownership of the contract to a new account (`newOwner`). Can only be called by the current owner."
      }
    },
    "version": 1
  },
  "userdoc": {
    "kind": "user",
    "methods": {},
    "version": 1
  },
  "storageLayout": {
    "storage": [
      {
        "astId": 138,
        "contract": "contracts/token/RtknToPrimeConverter.sol:RtknToPrimeConverter",
        "label": "_initialized",
        "offset": 0,
        "slot": "0",
        "type": "t_uint8"
      },
      {
        "astId": 141,
        "contract": "contracts/token/RtknToPrimeConverter.sol:RtknToPrimeConverter",
        "label": "_initializing",
        "offset": 1,
        "slot": "0",
        "type": "t_bool"
      },
      {
        "astId": 2011,
        "contract": "contracts/token/RtknToPrimeConverter.sol:RtknToPrimeConverter",
        "label": "__gap",
        "offset": 0,
        "slot": "1",
        "type": "t_array(t_uint256)50_storage"
      },
      {
        "astId": 10,
        "contract": "contracts/token/RtknToPrimeConverter.sol:RtknToPrimeConverter",
        "label": "_owner",
        "offset": 0,
        "slot": "51",
        "type": "t_address"
      },
      {
        "astId": 130,
        "contract": "contracts/token/RtknToPrimeConverter.sol:RtknToPrimeConverter",
        "label": "__gap",
        "offset": 0,
        "slot": "52",
        "type": "t_array(t_uint256)49_storage"
      },
      {
        "astId": 314,
        "contract": "contracts/token/RtknToPrimeConverter.sol:RtknToPrimeConverter",
        "label": "_status",
        "offset": 0,
        "slot": "101",
        "type": "t_uint256"
      },
      {
        "astId": 383,
        "contract": "contracts/token/RtknToPrimeConverter.sol:RtknToPrimeConverter",
        "label": "__gap",
        "offset": 0,
        "slot": "102",
        "type": "t_array(t_uint256)49_storage"
      },
      {
        "astId": 81458,
        "contract": "contracts/token/RtknToPrimeConverter.sol:RtknToPrimeConverter",
        "label": "rTKN",
        "offset": 0,
        "slot": "151",
        "type": "t_contract(ERC20BurnableUpgradeable)1138"
      },
      {
        "astId": 81463,
        "contract": "contracts/token/RtknToPrimeConverter.sol:RtknToPrimeConverter",
        "label": "rRTKNMaxCap",
        "offset": 0,
        "slot": "152",
        "type": "t_uint256"
      },
      {
        "astId": 81466,
        "contract": "contracts/token/RtknToPrimeConverter.sol:RtknToPrimeConverter",
        "label": "currentPhase",
        "offset": 0,
        "slot": "153",
        "type": "t_enum(Phase)59523"
      },
      {
        "astId": 81470,
        "contract": "contracts/token/RtknToPrimeConverter.sol:RtknToPrimeConverter",
        "label": "userrTKNPledged",
        "offset": 0,
        "slot": "154",
        "type": "t_mapping(t_address,t_uint256)"
      },
      {
        "astId": 81474,
        "contract": "contracts/token/RtknToPrimeConverter.sol:RtknToPrimeConverter",
        "label": "userProcessed",
        "offset": 0,
        "slot": "155",
        "type": "t_mapping(t_address,t_bool)"
      },
      {
        "astId": 81477,
        "contract": "contracts/token/RtknToPrimeConverter.sol:RtknToPrimeConverter",
        "label": "users",
        "offset": 0,
        "slot": "156",
        "type": "t_array(t_address)dyn_storage"
      },
      {
        "astId": 81479,
        "contract": "contracts/token/RtknToPrimeConverter.sol:RtknToPrimeConverter",
        "label": "totalrTKNPledged",
        "offset": 0,
        "slot": "157",
        "type": "t_uint256"
      },
      {
        "astId": 81481,
        "contract": "contracts/token/RtknToPrimeConverter.sol:RtknToPrimeConverter",
        "label": "totalAdjustedrTKNPledged",
        "offset": 0,
        "slot": "158",
        "type": "t_uint256"
      },
      {
        "astId": 81483,
        "contract": "contracts/token/RtknToPrimeConverter.sol:RtknToPrimeConverter",
        "label": "scalingFactor",
        "offset": 0,
        "slot": "159",
        "type": "t_uint256"
      },
      {
        "astId": 81485,
        "contract": "contracts/token/RtknToPrimeConverter.sol:RtknToPrimeConverter",
        "label": "currentBatchIndex",
        "offset": 0,
        "slot": "160",
        "type": "t_uint256"
      }
    ],
    "types": {
      "t_address": {
        "encoding": "inplace",
        "label": "address",
        "numberOfBytes": "20"
      },
      "t_array(t_address)dyn_storage": {
        "base": "t_address",
        "encoding": "dynamic_array",
        "label": "address[]",
        "numberOfBytes": "32"
      },
      "t_array(t_uint256)49_storage": {
        "base": "t_uint256",
        "encoding": "inplace",
        "label": "uint256[49]",
        "numberOfBytes": "1568"
      },
      "t_array(t_uint256)50_storage": {
        "base": "t_uint256",
        "encoding": "inplace",
        "label": "uint256[50]",
        "numberOfBytes": "1600"
      },
      "t_bool": {
        "encoding": "inplace",
        "label": "bool",
        "numberOfBytes": "1"
      },
      "t_contract(ERC20BurnableUpgradeable)1138": {
        "encoding": "inplace",
        "label": "contract ERC20BurnableUpgradeable",
        "numberOfBytes": "20"
      },
      "t_enum(Phase)59523": {
        "encoding": "inplace",
        "label": "enum IRtknToPrimeConverter.Phase",
        "numberOfBytes": "1"
      },
      "t_mapping(t_address,t_bool)": {
        "encoding": "mapping",
        "key": "t_address",
        "label": "mapping(address => bool)",
        "numberOfBytes": "32",
        "value": "t_bool"
      },
      "t_mapping(t_address,t_uint256)": {
        "encoding": "mapping",
        "key": "t_address",
        "label": "mapping(address => uint256)",
        "numberOfBytes": "32",
        "value": "t_uint256"
      },
      "t_uint256": {
        "encoding": "inplace",
        "label": "uint256",
        "numberOfBytes": "32"
      },
      "t_uint8": {
        "encoding": "inplace",
        "label": "uint8",
        "numberOfBytes": "1"
      }
    }
  }
}