{
  "address": "0x53A28BA9dB2cd2048a25903bB7173F509550D65D",
  "abi": [
    {
      "inputs": [],
      "stateMutability": "nonpayable",
      "type": "constructor"
    },
    {
      "inputs": [],
      "name": "AccessDenied",
      "type": "error"
    },
    {
      "inputs": [],
      "name": "BalanceLocked",
      "type": "error"
    },
    {
      "inputs": [],
      "name": "CalldataMustHaveValidPayload",
      "type": "error"
    },
    {
      "inputs": [],
      "name": "CalldataOverOrUnderFlow",
      "type": "error"
    },
    {
      "inputs": [],
      "name": "CanNotPickMedianOfEmptyArray",
      "type": "error"
    },
    {
      "inputs": [],
      "name": "DataPackageTimestampMustNotBeZero",
      "type": "error"
    },
    {
      "inputs": [],
      "name": "DataPackageTimestampsMustBeEqual",
      "type": "error"
    },
    {
      "inputs": [],
      "name": "EachSignerMustProvideTheSameValue",
      "type": "error"
    },
    {
      "inputs": [],
      "name": "EmptyCalldataPointersArr",
      "type": "error"
    },
    {
      "inputs": [],
      "name": "GetDataServiceIdNotImplemented",
      "type": "error"
    },
    {
      "inputs": [],
      "name": "IncorrectUnsignedMetadataSize",
      "type": "error"
    },
    {
      "inputs": [],
      "name": "InsufficientBalance",
      "type": "error"
    },
    {
      "inputs": [],
      "name": "InsufficientBalanceToLock",
      "type": "error"
    },
    {
      "inputs": [
        {
          "internalType": "uint256",
          "name": "receivedSignersCount",
          "type": "uint256"
        },
        {
          "internalType": "uint256",
          "name": "requiredSignersCount",
          "type": "uint256"
        }
      ],
      "name": "InsufficientNumberOfUniqueSigners",
      "type": "error"
    },
    {
      "inputs": [],
      "name": "InvalidCalldataPointer",
      "type": "error"
    },
    {
      "inputs": [],
      "name": "LengthMismatch",
      "type": "error"
    },
    {
      "inputs": [],
      "name": "LockPeriodExceeded",
      "type": "error"
    },
    {
      "inputs": [],
      "name": "NoPosition",
      "type": "error"
    },
    {
      "inputs": [],
      "name": "NoPositionToWithdraw",
      "type": "error"
    },
    {
      "inputs": [],
      "name": "PoolNotExisting",
      "type": "error"
    },
    {
      "inputs": [],
      "name": "ProxyCallFailed",
      "type": "error"
    },
    {
      "inputs": [
        {
          "internalType": "bytes",
          "name": "result",
          "type": "bytes"
        }
      ],
      "name": "ProxyCalldataFailedWithCustomError",
      "type": "error"
    },
    {
      "inputs": [
        {
          "internalType": "string",
          "name": "message",
          "type": "string"
        }
      ],
      "name": "ProxyCalldataFailedWithStringMessage",
      "type": "error"
    },
    {
      "inputs": [],
      "name": "ProxyCalldataFailedWithoutErrMsg",
      "type": "error"
    },
    {
      "inputs": [],
      "name": "ReceiverAlreadyHasPosition",
      "type": "error"
    },
    {
      "inputs": [],
      "name": "RedstonePayloadMustHaveAtLeastOneDataPackage",
      "type": "error"
    },
    {
      "inputs": [
        {
          "internalType": "address",
          "name": "receivedSigner",
          "type": "address"
        }
      ],
      "name": "SignerNotAuthorised",
      "type": "error"
    },
    {
      "inputs": [],
      "name": "SlippageTooHigh",
      "type": "error"
    },
    {
      "inputs": [],
      "name": "StillInLockPeriod",
      "type": "error"
    },
    {
      "inputs": [
        {
          "internalType": "uint256",
          "name": "receivedTimestampSeconds",
          "type": "uint256"
        },
        {
          "internalType": "uint256",
          "name": "blockTimestamp",
          "type": "uint256"
        }
      ],
      "name": "TimestampFromTooLongFuture",
      "type": "error"
    },
    {
      "inputs": [
        {
          "internalType": "uint256",
          "name": "receivedTimestampSeconds",
          "type": "uint256"
        },
        {
          "internalType": "uint256",
          "name": "blockTimestamp",
          "type": "uint256"
        }
      ],
      "name": "TimestampIsTooOld",
      "type": "error"
    },
    {
      "inputs": [],
      "name": "TotalLockMismatch",
      "type": "error"
    },
    {
      "inputs": [],
      "name": "UserAlreadyHasPosition",
      "type": "error"
    },
    {
      "anonymous": false,
      "inputs": [
        {
          "indexed": true,
          "internalType": "address",
          "name": "owner",
          "type": "address"
        },
        {
          "indexed": true,
          "internalType": "address",
          "name": "spender",
          "type": "address"
        },
        {
          "indexed": false,
          "internalType": "uint256",
          "name": "value",
          "type": "uint256"
        }
      ],
      "name": "Approval",
      "type": "event"
    },
    {
      "anonymous": false,
      "inputs": [
        {
          "indexed": false,
          "internalType": "uint8",
          "name": "version",
          "type": "uint8"
        }
      ],
      "name": "Initialized",
      "type": "event"
    },
    {
      "anonymous": false,
      "inputs": [
        {
          "indexed": true,
          "internalType": "address",
          "name": "from",
          "type": "address"
        },
        {
          "indexed": true,
          "internalType": "address",
          "name": "to",
          "type": "address"
        }
      ],
      "name": "OwnershipTransferRequested",
      "type": "event"
    },
    {
      "anonymous": false,
      "inputs": [
        {
          "indexed": true,
          "internalType": "address",
          "name": "previousOwner",
          "type": "address"
        },
        {
          "indexed": true,
          "internalType": "address",
          "name": "newOwner",
          "type": "address"
        }
      ],
      "name": "OwnershipTransferred",
      "type": "event"
    },
    {
      "anonymous": false,
      "inputs": [
        {
          "indexed": true,
          "internalType": "address",
          "name": "from",
          "type": "address"
        },
        {
          "indexed": true,
          "internalType": "address",
          "name": "to",
          "type": "address"
        },
        {
          "indexed": false,
          "internalType": "uint256",
          "name": "value",
          "type": "uint256"
        }
      ],
      "name": "Transfer",
      "type": "event"
    },
    {
      "inputs": [],
      "name": "MAX_LOCK_TIME",
      "outputs": [
        {
          "internalType": "uint256",
          "name": "",
          "type": "uint256"
        }
      ],
      "stateMutability": "view",
      "type": "function"
    },
    {
      "inputs": [],
      "name": "PRECISION",
      "outputs": [
        {
          "internalType": "uint256",
          "name": "",
          "type": "uint256"
        }
      ],
      "stateMutability": "view",
      "type": "function"
    },
    {
      "inputs": [],
      "name": "acceptOwnership",
      "outputs": [],
      "stateMutability": "nonpayable",
      "type": "function"
    },
    {
      "inputs": [
        {
          "internalType": "uint256[]",
          "name": "values",
          "type": "uint256[]"
        }
      ],
      "name": "aggregateValues",
      "outputs": [
        {
          "internalType": "uint256",
          "name": "",
          "type": "uint256"
        }
      ],
      "stateMutability": "view",
      "type": "function"
    },
    {
      "inputs": [
        {
          "internalType": "address",
          "name": "owner",
          "type": "address"
        },
        {
          "internalType": "address",
          "name": "spender",
          "type": "address"
        }
      ],
      "name": "allowance",
      "outputs": [
        {
          "internalType": "uint256",
          "name": "",
          "type": "uint256"
        }
      ],
      "stateMutability": "view",
      "type": "function"
    },
    {
      "inputs": [
        {
          "internalType": "address",
          "name": "spender",
          "type": "address"
        },
        {
          "internalType": "uint256",
          "name": "amount",
          "type": "uint256"
        }
      ],
      "name": "approve",
      "outputs": [
        {
          "internalType": "bool",
          "name": "",
          "type": "bool"
        }
      ],
      "stateMutability": "nonpayable",
      "type": "function"
    },
    {
      "inputs": [
        {
          "internalType": "address",
          "name": "account",
          "type": "address"
        }
      ],
      "name": "balanceOf",
      "outputs": [
        {
          "internalType": "uint256",
          "name": "",
          "type": "uint256"
        }
      ],
      "stateMutability": "view",
      "type": "function"
    },
    {
      "inputs": [],
      "name": "collect",
      "outputs": [],
      "stateMutability": "nonpayable",
      "type": "function"
    },
    {
      "inputs": [],
      "name": "containsOracleCalldata",
      "outputs": [
        {
          "internalType": "bool",
          "name": "",
          "type": "bool"
        }
      ],
      "stateMutability": "pure",
      "type": "function"
    },
    {
      "inputs": [],
      "name": "decimals",
      "outputs": [
        {
          "internalType": "uint8",
          "name": "",
          "type": "uint8"
        }
      ],
      "stateMutability": "view",
      "type": "function"
    },
    {
      "inputs": [
        {
          "internalType": "address",
          "name": "spender",
          "type": "address"
        },
        {
          "internalType": "uint256",
          "name": "subtractedValue",
          "type": "uint256"
        }
      ],
      "name": "decreaseAllowance",
      "outputs": [
        {
          "internalType": "bool",
          "name": "",
          "type": "bool"
        }
      ],
      "stateMutability": "nonpayable",
      "type": "function"
    },
    {
      "inputs": [
        {
          "internalType": "int24",
          "name": "tickDesired",
          "type": "int24"
        },
        {
          "internalType": "int24",
          "name": "tickSlippage",
          "type": "int24"
        },
        {
          "internalType": "uint256",
          "name": "amountX",
          "type": "uint256"
        },
        {
          "internalType": "uint256",
          "name": "amountY",
          "type": "uint256"
        },
        {
          "internalType": "uint256",
          "name": "desiredAmountX",
          "type": "uint256"
        },
        {
          "internalType": "uint256",
          "name": "desiredAmountY",
          "type": "uint256"
        },
        {
          "internalType": "bool",
          "name": "isRebalance",
          "type": "bool"
        },
        {
          "internalType": "uint256",
          "name": "swapSlippage",
          "type": "uint256"
        }
      ],
      "name": "deposit",
      "outputs": [],
      "stateMutability": "nonpayable",
      "type": "function"
    },
    {
      "inputs": [],
      "name": "extractTimestampsAndAssertAllAreEqual",
      "outputs": [
        {
          "internalType": "uint256",
          "name": "extractedTimestamp",
          "type": "uint256"
        }
      ],
      "stateMutability": "pure",
      "type": "function"
    },
    {
      "inputs": [],
      "name": "feeTier",
      "outputs": [
        {
          "internalType": "uint24",
          "name": "",
          "type": "uint24"
        }
      ],
      "stateMutability": "view",
      "type": "function"
    },
    {
      "inputs": [
        {
          "internalType": "address",
          "name": "signerAddress",
          "type": "address"
        }
      ],
      "name": "getAuthorisedSignerIndex",
      "outputs": [
        {
          "internalType": "uint8",
          "name": "",
          "type": "uint8"
        }
      ],
      "stateMutability": "view",
      "type": "function"
    },
    {
      "inputs": [],
      "name": "getDataServiceId",
      "outputs": [
        {
          "internalType": "string",
          "name": "",
          "type": "string"
        }
      ],
      "stateMutability": "view",
      "type": "function"
    },
    {
      "inputs": [
        {
          "internalType": "address",
          "name": "account",
          "type": "address"
        }
      ],
      "name": "getFullyVestedLockedBalance",
      "outputs": [
        {
          "internalType": "uint256",
          "name": "fullyVestedBalance",
          "type": "uint256"
        }
      ],
      "stateMutability": "view",
      "type": "function"
    },
    {
      "inputs": [
        {
          "internalType": "address",
          "name": "account",
          "type": "address"
        }
      ],
      "name": "getLockedBalance",
      "outputs": [
        {
          "internalType": "uint256",
          "name": "",
          "type": "uint256"
        }
      ],
      "stateMutability": "view",
      "type": "function"
    },
    {
      "inputs": [],
      "name": "getPoolPrice",
      "outputs": [
        {
          "internalType": "uint256",
          "name": "",
          "type": "uint256"
        }
      ],
      "stateMutability": "view",
      "type": "function"
    },
    {
      "inputs": [],
      "name": "getTokenX",
      "outputs": [
        {
          "internalType": "contract IERC20",
          "name": "",
          "type": "address"
        }
      ],
      "stateMutability": "view",
      "type": "function"
    },
    {
      "inputs": [],
      "name": "getTokenY",
      "outputs": [
        {
          "internalType": "contract IERC20",
          "name": "",
          "type": "address"
        }
      ],
      "stateMutability": "view",
      "type": "function"
    },
    {
      "inputs": [],
      "name": "getUniqueSignersThreshold",
      "outputs": [
        {
          "internalType": "uint8",
          "name": "",
          "type": "uint8"
        }
      ],
      "stateMutability": "view",
      "type": "function"
    },
    {
      "inputs": [
        {
          "internalType": "address",
          "name": "user",
          "type": "address"
        }
      ],
      "name": "getUserValueInTokenY",
      "outputs": [
        {
          "internalType": "uint256",
          "name": "",
          "type": "uint256"
        }
      ],
      "stateMutability": "view",
      "type": "function"
    },
    {
      "inputs": [
        {
          "internalType": "address",
          "name": "user",
          "type": "address"
        },
        {
          "internalType": "uint256",
          "name": "poolPrice",
          "type": "uint256"
        }
      ],
      "name": "getUserValueInTokenY",
      "outputs": [
        {
          "internalType": "uint256",
          "name": "amountY",
          "type": "uint256"
        }
      ],
      "stateMutability": "view",
      "type": "function"
    },
    {
      "inputs": [
        {
          "internalType": "address",
          "name": "spender",
          "type": "address"
        },
        {
          "internalType": "uint256",
          "name": "addedValue",
          "type": "uint256"
        }
      ],
      "name": "increaseAllowance",
      "outputs": [
        {
          "internalType": "bool",
          "name": "",
          "type": "bool"
        }
      ],
      "stateMutability": "nonpayable",
      "type": "function"
    },
    {
      "inputs": [
        {
          "internalType": "contract IERC20Metadata",
          "name": "tokenX_",
          "type": "address"
        },
        {
          "internalType": "contract IERC20Metadata",
          "name": "tokenY_",
          "type": "address"
        },
        {
          "internalType": "string",
          "name": "name_",
          "type": "string"
        },
        {
          "internalType": "uint24",
          "name": "feeTier_",
          "type": "uint24"
        },
        {
          "internalType": "int24",
          "name": "deltaId_",
          "type": "int24"
        },
        {
          "internalType": "contract INonfungiblePositionManager",
          "name": "positionManager_",
          "type": "address"
        },
        {
          "internalType": "contract ISwapRouter",
          "name": "swapRouter_",
          "type": "address"
        },
        {
          "internalType": "contract IUniswapV3Factory",
          "name": "uniV3Factory_",
          "type": "address"
        }
      ],
      "name": "initialize",
      "outputs": [],
      "stateMutability": "nonpayable",
      "type": "function"
    },
    {
      "inputs": [
        {
          "internalType": "uint256",
          "name": "amount",
          "type": "uint256"
        },
        {
          "internalType": "uint256",
          "name": "lockPeriod",
          "type": "uint256"
        }
      ],
      "name": "lockBalance",
      "outputs": [],
      "stateMutability": "nonpayable",
      "type": "function"
    },
    {
      "inputs": [
        {
          "internalType": "address",
          "name": "",
          "type": "address"
        },
        {
          "internalType": "uint256",
          "name": "",
          "type": "uint256"
        }
      ],
      "name": "locks",
      "outputs": [
        {
          "internalType": "uint256",
          "name": "lockPeriod",
          "type": "uint256"
        },
        {
          "internalType": "uint256",
          "name": "amount",
          "type": "uint256"
        },
        {
          "internalType": "uint256",
          "name": "unlockTime",
          "type": "uint256"
        }
      ],
      "stateMutability": "view",
      "type": "function"
    },
    {
      "inputs": [
        {
          "internalType": "uint256",
          "name": "tokenId",
          "type": "uint256"
        },
        {
          "internalType": "int24",
          "name": "tickDesired",
          "type": "int24"
        },
        {
          "internalType": "int24",
          "name": "tickSlippage",
          "type": "int24"
        },
        {
          "internalType": "uint256",
          "name": "swapSlippage",
          "type": "uint256"
        }
      ],
      "name": "migrateLiquidity",
      "outputs": [],
      "stateMutability": "nonpayable",
      "type": "function"
    },
    {
      "inputs": [
        {
          "internalType": "address",
          "name": "user",
          "type": "address"
        },
        {
          "internalType": "uint256[]",
          "name": "percentForLocks",
          "type": "uint256[]"
        },
        {
          "internalType": "uint256[]",
          "name": "lockPeriods",
          "type": "uint256[]"
        },
        {
          "internalType": "uint256",
          "name": "amountX",
          "type": "uint256"
        },
        {
          "internalType": "uint256",
          "name": "amountY",
          "type": "uint256"
        },
        {
          "internalType": "int24",
          "name": "tickDesired",
          "type": "int24"
        },
        {
          "internalType": "int24",
          "name": "tickSlippage",
          "type": "int24"
        }
      ],
      "name": "mintForUserAndLock",
      "outputs": [],
      "stateMutability": "nonpayable",
      "type": "function"
    },
    {
      "inputs": [],
      "name": "name",
      "outputs": [
        {
          "internalType": "string",
          "name": "",
          "type": "string"
        }
      ],
      "stateMutability": "view",
      "type": "function"
    },
    {
      "inputs": [
        {
          "internalType": "address",
          "name": "",
          "type": "address"
        },
        {
          "internalType": "address",
          "name": "",
          "type": "address"
        },
        {
          "internalType": "uint256",
          "name": "",
          "type": "uint256"
        },
        {
          "internalType": "bytes",
          "name": "",
          "type": "bytes"
        }
      ],
      "name": "onERC721Received",
      "outputs": [
        {
          "internalType": "bytes4",
          "name": "",
          "type": "bytes4"
        }
      ],
      "stateMutability": "nonpayable",
      "type": "function"
    },
    {
      "inputs": [],
      "name": "operator",
      "outputs": [
        {
          "internalType": "address",
          "name": "",
          "type": "address"
        }
      ],
      "stateMutability": "view",
      "type": "function"
    },
    {
      "inputs": [],
      "name": "owner",
      "outputs": [
        {
          "internalType": "address",
          "name": "",
          "type": "address"
        }
      ],
      "stateMutability": "view",
      "type": "function"
    },
    {
      "inputs": [],
      "name": "pendingOwner",
      "outputs": [
        {
          "internalType": "address",
          "name": "",
          "type": "address"
        }
      ],
      "stateMutability": "view",
      "type": "function"
    },
    {
      "inputs": [],
      "name": "pool",
      "outputs": [
        {
          "internalType": "contract IUniswapV3Pool",
          "name": "",
          "type": "address"
        }
      ],
      "stateMutability": "view",
      "type": "function"
    },
    {
      "inputs": [],
      "name": "positionManager",
      "outputs": [
        {
          "internalType": "contract INonfungiblePositionManager",
          "name": "",
          "type": "address"
        }
      ],
      "stateMutability": "view",
      "type": "function"
    },
    {
      "inputs": [],
      "name": "renounceOwnership",
      "outputs": [],
      "stateMutability": "nonpayable",
      "type": "function"
    },
    {
      "inputs": [
        {
          "internalType": "address",
          "name": "_implementation",
          "type": "address"
        }
      ],
      "name": "setImplementation",
      "outputs": [],
      "stateMutability": "nonpayable",
      "type": "function"
    },
    {
      "inputs": [
        {
          "internalType": "address",
          "name": "_operator",
          "type": "address"
        }
      ],
      "name": "setOperator",
      "outputs": [],
      "stateMutability": "nonpayable",
      "type": "function"
    },
    {
      "inputs": [
        {
          "internalType": "contract IVPrimeController",
          "name": "_vPrimeController",
          "type": "address"
        }
      ],
      "name": "setVPrimeControllerAddress",
      "outputs": [],
      "stateMutability": "nonpayable",
      "type": "function"
    },
    {
      "inputs": [],
      "name": "swapRouter",
      "outputs": [
        {
          "internalType": "contract ISwapRouter",
          "name": "",
          "type": "address"
        }
      ],
      "stateMutability": "view",
      "type": "function"
    },
    {
      "inputs": [],
      "name": "symbol",
      "outputs": [
        {
          "internalType": "string",
          "name": "",
          "type": "string"
        }
      ],
      "stateMutability": "view",
      "type": "function"
    },
    {
      "inputs": [
        {
          "internalType": "address",
          "name": "user",
          "type": "address"
        }
      ],
      "name": "tickInRange",
      "outputs": [
        {
          "internalType": "bool",
          "name": "status",
          "type": "bool"
        }
      ],
      "stateMutability": "view",
      "type": "function"
    },
    {
      "inputs": [],
      "name": "tickSpacing",
      "outputs": [
        {
          "internalType": "int24",
          "name": "",
          "type": "int24"
        }
      ],
      "stateMutability": "view",
      "type": "function"
    },
    {
      "inputs": [],
      "name": "tokenDecimals",
      "outputs": [
        {
          "internalType": "uint8",
          "name": "",
          "type": "uint8"
        }
      ],
      "stateMutability": "view",
      "type": "function"
    },
    {
      "inputs": [],
      "name": "tokenSequence",
      "outputs": [
        {
          "internalType": "bool",
          "name": "",
          "type": "bool"
        }
      ],
      "stateMutability": "view",
      "type": "function"
    },
    {
      "inputs": [],
      "name": "tokenX",
      "outputs": [
        {
          "internalType": "contract IERC20Metadata",
          "name": "",
          "type": "address"
        }
      ],
      "stateMutability": "view",
      "type": "function"
    },
    {
      "inputs": [],
      "name": "tokenY",
      "outputs": [
        {
          "internalType": "contract IERC20Metadata",
          "name": "",
          "type": "address"
        }
      ],
      "stateMutability": "view",
      "type": "function"
    },
    {
      "inputs": [],
      "name": "totalSupply",
      "outputs": [
        {
          "internalType": "uint256",
          "name": "",
          "type": "uint256"
        }
      ],
      "stateMutability": "view",
      "type": "function"
    },
    {
      "inputs": [
        {
          "internalType": "address",
          "name": "to",
          "type": "address"
        },
        {
          "internalType": "uint256",
          "name": "amount",
          "type": "uint256"
        }
      ],
      "name": "transfer",
      "outputs": [
        {
          "internalType": "bool",
          "name": "",
          "type": "bool"
        }
      ],
      "stateMutability": "nonpayable",
      "type": "function"
    },
    {
      "inputs": [
        {
          "internalType": "address",
          "name": "from",
          "type": "address"
        },
        {
          "internalType": "address",
          "name": "to",
          "type": "address"
        },
        {
          "internalType": "uint256",
          "name": "amount",
          "type": "uint256"
        }
      ],
      "name": "transferFrom",
      "outputs": [
        {
          "internalType": "bool",
          "name": "",
          "type": "bool"
        }
      ],
      "stateMutability": "nonpayable",
      "type": "function"
    },
    {
      "inputs": [
        {
          "internalType": "address",
          "name": "newOwner",
          "type": "address"
        }
      ],
      "name": "transferOwnership",
      "outputs": [],
      "stateMutability": "nonpayable",
      "type": "function"
    },
    {
      "inputs": [
        {
          "internalType": "address",
          "name": "",
          "type": "address"
        }
      ],
      "name": "userTokenId",
      "outputs": [
        {
          "internalType": "uint256",
          "name": "",
          "type": "uint256"
        }
      ],
      "stateMutability": "view",
      "type": "function"
    },
    {
      "inputs": [],
      "name": "vPrimeController",
      "outputs": [
        {
          "internalType": "contract IVPrimeController",
          "name": "",
          "type": "address"
        }
      ],
      "stateMutability": "view",
      "type": "function"
    },
    {
      "inputs": [
        {
          "internalType": "uint256",
          "name": "receivedTimestampMilliseconds",
          "type": "uint256"
        }
      ],
      "name": "validateTimestamp",
      "outputs": [],
      "stateMutability": "view",
      "type": "function"
    },
    {
      "inputs": [
        {
          "internalType": "uint256",
          "name": "share",
          "type": "uint256"
        },
        {
          "internalType": "uint256",
          "name": "amountXMin",
          "type": "uint256"
        },
        {
          "internalType": "uint256",
          "name": "amountYMin",
          "type": "uint256"
        }
      ],
      "name": "withdraw",
      "outputs": [],
      "stateMutability": "nonpayable",
      "type": "function"
    }
  ],
  "transactionHash": "0xa3dc12c52ada36753e7783f3f60d3f03c5caf2a034b16c3bb76f3c83db7af5ae",
  "args": [],
  "numDeployments": 11,
  "solcInputHash": "202893ec64ae7ec07b2976a33c0feb5b",
  "bytecode": "0x60806040523480156200001157600080fd5b506200001c62000022565b620000e3565b600054610100900460ff16156200008f5760405162461bcd60e51b815260206004820152602760248201527f496e697469616c697a61626c653a20636f6e747261637420697320696e697469604482015266616c697a696e6760c81b606482015260840160405180910390fd5b60005460ff90811614620000e1576000805460ff191660ff9081179091556040519081527f7f26b83ff96e1f2b6a682f133852f6798a09c465da95921460cefb38474024989060200160405180910390a15b565b6157be80620000f36000396000f3fe608060405234801561001057600080fd5b50600436106102935760003560e01c806305e8746d1461029857806306fdde03146102bb578063095ea7b3146102d05780630d1870df146102f3578063150b7a02146102fb57806316dc165b1461032757806316f0115b1461033a57806318160ddd1461034d578063191723ed1461035f5780631c6a6b4f1461037457806320d2a1131461038757806323b872dd1461039a57806328581f29146103ad578063313ce567146103c257806339509351146103e15780633b97e856146103f45780633ce142f514610408578063447ff2621461041b57806355a547d51461042f578063570ca7351461043757806358b81ffd1461044b57806370a082311461045e578063715018a614610471578063715ca5421461047957806372f5d98a14610499578063791b98bc146104c357806379ba5097146104d7578063808d7c9b146104df578063885a08e0146104f25780638da5cb5b146104fa57806395d89b4114610502578063a41fe49f1461050a578063a457c2d71461051d578063a9059cbb14610530578063aaf5eb6814610543578063b24ebfcc1461054b578063b3ab15fb1461055e578063b425f80214610571578063b7d19fc41461059f578063b9b3010b146105b2578063bf9ee483146105c5578063c274583a146105d8578063c31c9c071461060a578063c40868931461061e578063c4ce635814610631578063d0c93a7c14610644578063d784d4261461066b578063da10610c1461067e578063dd62ed3e1461068f578063e30c3978146106a2578063e4586f17146106aa578063e5225381146106bd578063eddeebf3146106c5578063f2fde38b146106d8578063f50b2efe146106eb578063f90c4924146106fe578063fa78668f14610705575b600080fd5b60fd546001600160a01b03165b6040516102b29190614a0f565b60405180910390f35b6102c3610710565b6040516102b29190614a73565b6102e36102de366004614a9b565b6107a2565b60405190151581526020016102b2565b6102e36107bc565b61030e610309366004614b64565b6107d0565b6040516001600160e01b031990911681526020016102b2565b60fd546102a5906001600160a01b031681565b60ff546102a5906001600160a01b031681565b6099545b6040519081526020016102b2565b61037261036d366004614be3565b6107e1565b005b610372610382366004614c63565b6108d6565b610351610395366004614d1d565b6109d3565b6102e36103a8366004614d3a565b6109f1565b610102546102e390600160a01b900460ff1681565b60ff8054600160a01b9004165b60405160ff90911681526020016102b2565b6102e36103ef366004614a9b565b610a15565b60ff80546103cf91600160a01b9091041681565b6103cf610416366004614d1d565b610a37565b610102546102a5906001600160a01b031681565b610351610b3e565b610104546102a5906001600160a01b031681565b610372610459366004614d88565b610c56565b61035161046c366004614d1d565b610e56565b610372610e71565b610351610487366004614d1d565b60fc6020526000908152604090205481565b60ff546104af90600160a81b900462ffffff1681565b60405162ffffff90911681526020016102b2565b610100546102a5906001600160a01b031681565b610372610e85565b6103726104ed366004614d1d565b610f17565b610351610f42565b6102a5610f86565b6102c3610f95565b610372610518366004614dd0565b610fa4565b6102e361052b366004614a9b565b61118c565b6102e361053e366004614a9b565b611207565b610351601481565b610351610559366004614dfc565b611215565b61037261056c366004614d1d565b611220565b61058461057f366004614a9b565b61124b565b604080519384526020840192909252908201526060016102b2565b60fe546102a5906001600160a01b031681565b6103726105c0366004614ebc565b61128d565b6102e36105d3366004614d1d565b61165c565b6040805180820190915260168152751c99591cdd1bdb994b585c989a5d1c9d5b4b5c1c9bd960521b60208201526102c3565b610101546102a5906001600160a01b031681565b61035161062c366004614d1d565b61176c565b61035161063f366004614d1d565b611838565b60fe5461065890600160a01b900460020b81565b60405160029190910b81526020016102b2565b610372610679366004614d1d565b611956565b60fe546001600160a01b03166102a5565b61035161069d366004614f85565b611981565b6102a56119ac565b6103726106b8366004614fcc565b6119bb565b610372611a16565b6103516106d3366004614a9b565b611a65565b6103726106e6366004614d1d565b611b39565b6103726106f9366004615048565b611c00565b60036103cf565b6103516305a39a8081565b6060609a805461071f90615061565b80601f016020809104026020016040519081016040528092919081815260200182805461074b90615061565b80156107985780601f1061076d57610100808354040283529160200191610798565b820191906000526020600020905b81548152906001019060200180831161077b57829003601f168201915b5050505050905090565b6000336107b0818585611c09565b60019150505b92915050565b6602ed57011e0000601f1936013581161490565b630a85bd0160e11b5b949350505050565b6107e9611d2d565b3360006107f58261176c565b905061080181856150ab565b61080a83610e56565b101561082957604051635d4fa00b60e11b815260040160405180910390fd5b6305a39a8083111561084e57604051633821834560e01b815260040160405180910390fd5b6001600160a01b038216600090815260fb6020908152604091829020825160608101845286815291820187905291810161088886426150ab565b9052815460018181018455600093845260209384902083516003909302019182559282015192810192909255604001516002909101556108c782611d86565b50506108d260018055565b5050565b610104546001600160a01b0316336001600160a01b03161461090b57604051634ca8886760e01b815260040160405180910390fd5b610913611d2d565b3361092081308787611e65565b878614610943576040516001621398b960e31b0319815260040160405180910390fd5b600061094e8b610e56565b90506109658b8585898960008060016101f4611ef0565b8061096f8c610e56565b111561099b576109968b826109838e610e56565b61098d91906150be565b8c8c8c8c61217f565b6109b4565b604051635d4fa00b60e11b815260040160405180910390fd5b6109bd8b611d86565b50506109c860018055565b505050505050505050565b6000806109de610f42565b90506109ea8382611a65565b9392505050565b6000336109ff85828561235b565b610a0a8585856123cf565b506001949350505050565b6000336107b0818585610a288383611981565b610a3291906150ab565b611c09565b60006001600160a01b03821673345efd26098e173f811e3b9af1b0e0a11872b38b03610a6557506000919050565b6001600160a01b03821673bd0c5ccd85d5831b10e3e49527b8cd67e2efaf3903610a9157506001919050565b6001600160a01b038216732f3e8ec88c01593d10ca9461c807660ff2d8db2803610abd57506002919050565b6001600160a01b03821673b7f154bb5491565d215f4eb1c3fe3e84960627af03610ae957506003919050565b6001600160a01b03821673e6b0de8f4b31f137d3c59b5a0a71e66e7d504ef903610b1557506004919050565b816040516303b1166f60e61b8152600401610b309190614a0f565b60405180910390fd5b919050565b600080610b49612579565b90506000610b5682612620565b61ffff16905080600003610b7d57604051632154bfcf60e21b815260040160405180910390fd5b610b886002836150ab565b915060005b81811015610c50576000610ba08461265a565b9050600080610bb06068876150ab565b90506000610bbe82366150be565b9050803592508265ffffffffffff16600003610bed57604051630336dc9d60e41b815260040160405180910390fd5b87600003610c05578265ffffffffffff169750610c2d565b878365ffffffffffff1614610c2d5760405163d9d1f46560e01b815260040160405180910390fd5b610c3784886150ab565b9650505050508080610c48906150d1565b915050610b8d565b50505090565b610c5e611d2d565b33610100546040516331a9108f60e11b8152600481018790526001600160a01b039283169290911690636352211e90602401602060405180830381865afa158015610cad573d6000803e3d6000fd5b505050506040513d601f19601f82011682018060405250810190610cd191906150f5565b6001600160a01b031614610cf857604051632afc3c0d60e21b815260040160405180910390fd5b6101005460405163133f757160e31b8152600481018690526000916001600160a01b0316906399fbab889060240161018060405180830381865afa158015610d44573d6000803e3d6000fd5b505050506040513d601f19601f82011682018060405250810190610d68919061513f565b50505050975050505050505050600080610d8687843060008061268e565b60fd5491935091506001600160a01b0316610d9f61276d565b6001600160a01b031614610daf57905b61010054604051630852cd8d60e31b8152600481018990526001600160a01b03909116906342966c6890602401600060405180830381600087803b158015610df657600080fd5b505af1158015610e0a573d6000803e3d6000fd5b505050506101f4841115610e315760405163428637bb60e11b815260040160405180910390fd5b610e44338787858560008060018c611ef0565b505050610e5060018055565b50505050565b6001600160a01b031660009081526097602052604090205490565b610e796127db565b610e83600061283a565b565b6000610e8f61288c565b9050336001600160a01b03821614610f015760405162461bcd60e51b815260206004820152602f60248201527f50656e64696e674f776e61626c653a2063616c6c6572206973206e6f7420746860448201526e32903832b73234b7339037bbb732b960891b6064820152608401610b30565b610f0a8161283a565b610f14600061289f565b50565b610f1f6127db565b61010280546001600160a01b0319166001600160a01b0392909216919091179055565b600080610f546208aa8960eb1b6128b1565b90506000610f69645052494d4560d81b6128b1565b9050600082610f7c836305f5e10061521b565b6107d99190615248565b6065546001600160a01b031690565b6060609b805461071f90615061565b610fac611d2d565b33600081815260fc602052604081205490819003610fdd576040516350fbff7d60e11b815260040160405180910390fd5b6101005460405163133f757160e31b8152600481018390526000916001600160a01b0316906399fbab889060240161018060405180830381865afa158015611029573d6000803e3d6000fd5b505050506040513d601f19601f8201168201806040525081019061104d919061513f565b50505050975050505050505050600061106584610e56565b90506110708461176c565b61107a90886150ab565b81101561109a5760405163298f11cf60e11b815260040160405180910390fd5b61010254600160a01b900460ff166110b35785856110b6565b84865b90965094506110e583826110d38a6001600160801b03871661521b565b6110dd9190615248565b86898961268e565b50508681036111675761010054604051630852cd8d60e31b8152600481018590526001600160a01b03909116906342966c6890602401600060405180830381600087803b15801561113557600080fd5b505af1158015611149573d6000803e3d6000fd5b5050506001600160a01b038516600090815260fc6020526040812055505b6111718488612921565b61117a84611d86565b5050505061118760018055565b505050565b6000338161119a8286611981565b9050838110156111fa5760405162461bcd60e51b815260206004820152602560248201527f45524332303a2064656372656173656420616c6c6f77616e63652062656c6f77604482015264207a65726f60d81b6064820152608401610b30565b610a0a8286868403611c09565b6000336107b08185856123cf565b60006107b682612a56565b6112286127db565b61010480546001600160a01b0319166001600160a01b0392909216919091179055565b60fb602052816000526040600020818154811061126757600080fd5b600091825260209091206003909102018054600182015460029092015490935090915083565b600054610100900460ff16158080156112ad5750600054600160ff909116105b806112ce57506112bc30612a61565b1580156112ce575060005460ff166001145b6113315760405162461bcd60e51b815260206004820152602e60248201527f496e697469616c697a61626c653a20636f6e747261637420697320616c72656160448201526d191e481a5b9a5d1a585b1a5e995960921b6064820152608401610b30565b6000805460ff191660011790558015611354576000805461ff0019166101001790555b61135c612a70565b611364612a9f565b61138c8760405180604001604052806006815260200165735072696d6560d01b815250612ac6565b611394612b06565b876001600160a01b031663313ce5676040518163ffffffff1660e01b8152600401602060405180830381865afa1580156113d2573d6000803e3d6000fd5b505050506040513d601f19601f820116820180604052508101906113f6919061526d565b60ff805461010280546001600160a01b03808e168f8216818111600160a01b90810260ff60a01b19959095169490941790945560fd80546001600160a01b0319908116909517905560fe80548516909117905562ffffff8c16600160a81b0262ffffff60a81b199686169092029590951663ffffffff60a01b199093169290921791909117909155610100805487841690831617905561010180548684169216919091179055604051630b4c774160e11b8152600091841690631698ee82906114eb908d908d908c906004016001600160a01b03938416815291909216602082015262ffffff91909116604082015260600190565b602060405180830381865afa158015611508573d6000803e3d6000fd5b505050506040513d601f19601f8201168201806040525081019061152c91906150f5565b90506001600160a01b0381166115555760405163ce6390eb60e01b815260040160405180910390fd5b60ff80546001600160a01b0319166001600160a01b038316908117909155604080516334324e9f60e21b8152905163d0c93a7c916004808201926020929091908290030181865afa1580156115ae573d6000803e3d6000fd5b505050506040513d601f19601f820116820180604052508101906115d29190615288565b60fe805465ffffffffffff60a01b1916600160a01b62ffffff9384160262ffffff60b81b191617600160b81b928916929092029190911790555080156109c8576000805461ff0019169055604051600181527f7f26b83ff96e1f2b6a682f133852f6798a09c465da95921460cefb38474024989060200160405180910390a1505050505050505050565b6001600160a01b038116600090815260fc602052604081205480820361169557604051632afc3c0d60e21b815260040160405180910390fd5b610103546040516024810183905260009182916001600160a01b039091169060440160408051601f198184030181529181526020820180516001600160e01b031663d76ca19b60e01b179052516116ec91906152a5565b600060405180830381855afa9150503d8060008114611727576040519150601f19603f3d011682016040523d82523d6000602084013e61172c565b606091505b50915091508161174f57604051633a4d27f760e21b815260040160405180910390fd5b8080602001905181019061176391906152c1565b95945050505050565b6001600160a01b038116600090815260fb60205260408120548190815b81811461182f576001600160a01b038516600090815260fb602052604090208054429190839081106117bd576117bd6152de565b906000526020600020906003020160020154111561181f576001600160a01b038516600090815260fb602052604090208054829081106117ff576117ff6152de565b9060005260206000209060030201600101548361181c91906150ab565b92505b611828816150d1565b9050611789565b50909392505050565b6001600160a01b038116600090815260fb6020526040812054815b81811461194f576001600160a01b038416600090815260fb60205260409020805442919083908110611887576118876152de565b906000526020600020906003020160020154111561193f576001600160a01b038416600090815260fb6020526040902080546119329190839081106118ce576118ce6152de565b90600052602060002090600302016001015460fb6000876001600160a01b03166001600160a01b031681526020019081526020016000208381548110611916576119166152de565b9060005260206000209060030201600001546305a39a80612b2d565b61193c90846150ab565b92505b611948816150d1565b9050611853565b5050919050565b61195e6127db565b61010380546001600160a01b0319166001600160a01b0392909216919091179055565b6001600160a01b03918216600090815260986020908152604080832093909416825291909152205490565b60006119b661288c565b905090565b6119c3611d2d565b6119cf33308888611e65565b6101f48111156119f25760405163428637bb60e11b815260040160405180910390fd5b611a03338989898989898989611ef0565b611a0c60018055565b5050505050505050565b611a1e611d2d565b33600090815260fc602052604081205490819003611a4f57604051632afc3c0d60e21b815260040160405180910390fd5b611a598133612ca6565b505050610e8360018055565b61010354604051600091829182916001600160a01b031690611a8d90879087906024016152f4565b60408051601f198184030181529181526020820180516001600160e01b031663eddeebf360e01b17905251611ac291906152a5565b600060405180830381855afa9150503d8060008114611afd576040519150601f19603f3d011682016040523d82523d6000602084013e611b02565b606091505b509150915081611b2557604051633a4d27f760e21b815260040160405180910390fd5b80806020019051810190611763919061530d565b611b416127db565b6001600160a01b038116611bad5760405162461bcd60e51b815260206004820152602d60248201527f50656e64696e674f776e61626c653a206e6577206f776e65722069732074686560448201526c207a65726f206164647265737360981b6064820152608401610b30565b611bb68161289f565b806001600160a01b0316611bc8610f86565b6001600160a01b03167fed8889f560326eb138920d842192f0eb3dd22b4f139c87a2c57538e05bae127860405160405180910390a350565b610f1481612d6b565b6001600160a01b038316611c6b5760405162461bcd60e51b8152602060048201526024808201527f45524332303a20617070726f76652066726f6d20746865207a65726f206164646044820152637265737360e01b6064820152608401610b30565b6001600160a01b038216611ccc5760405162461bcd60e51b815260206004820152602260248201527f45524332303a20617070726f766520746f20746865207a65726f206164647265604482015261737360f01b6064820152608401610b30565b6001600160a01b0383811660008181526098602090815260408083209487168084529482529182902085905590518481527f8c5be1e5ebec7d5bd14f71427d1e84f3dd0314c0f7b2291e5b200ac8c7c3b925910160405180910390a3505050565b600260015403611d7f5760405162461bcd60e51b815260206004820152601f60248201527f5265656e7472616e637947756172643a207265656e7472616e742063616c6c006044820152606401610b30565b6002600155565b610102546001600160a01b031615610f1457611da06107bc565b15611df957610102546040516108d2916001600160a01b031690611dc8908490602401614a0f565b60408051601f198184030181529190526020810180516001600160e01b0316636cec346160e01b1790526000612deb565b6101025460405163bf18c23960e01b81526001600160a01b039091169063bf18c23990611e2a908490600401614a0f565b600060405180830381600087803b158015611e4457600080fd5b505af1158015611e58573d6000803e3d6000fd5b5050505050565b60018055565b306001600160a01b03851603611eb4578115611e925760fd54611e92906001600160a01b03168484612e7f565b8015611eaf5760fe54611eaf906001600160a01b03168483612e7f565b610e50565b8115611ed25760fd54611ed2906001600160a01b0316858585612ed5565b8015610e505760fe54610e50906001600160a01b0316858584612ed5565b6001600160a01b038916600090815260fc602052604081205481908015611ffd576101005460405163133f757160e31b8152600481018390526000916001600160a01b0316906399fbab889060240161018060405180830381865afa158015611f5d573d6000803e3d6000fd5b505050506040513d601f19601f82011682018060405250810190611f81919061513f565b50949d50929b50909850508c159650611ffb9550505050505057600080611fac84843060008061268e565b60fd5491935091506001600160a01b0316611fc561276d565b6001600160a01b031614611fd557905b611fdf8f85612f0d565b611fe9828d6150ab565b611ff3828d6150ab565b909c509a5050505b505b612008898986612f9b565b6001600160a01b038e16600090815260fc6020526040812054929b50909950036121595760ff5460408051633850c7bd60e01b815290516000926001600160a01b031691633850c7bd9160048083019260e09291908290030181865afa158015612076573d6000803e3d6000fd5b505050506040513d601f19601f8201168201806040525081019061209a9190615338565b50505050509150506120ab81613173565b9050600281900b6120bc8c8e6153c7565b60020b121580156120dd575060028c900b6120d78c836153c7565b60020b12155b6120fa5760405163428637bb60e11b815260040160405180910390fd5b60fe5461211c90600160b81b8104600290810b91600160a01b9004900b6153ec565b6121269082615413565b60fe5490945061214b90600160b81b8104600290810b91600160a01b9004900b6153ec565b61215590826153c7565b9250505b6121688c84848c8c8c8c613197565b6121718c611d86565b505050505050505050505050565b600081815b818160ff16146121c75786868260ff168181106121a3576121a36152de565b90506020020135836121b591906150ab565b92506121c081615438565b9050612184565b50816064146121e9576040516305f502a160e01b815260040160405180910390fd5b6000915060005b818160ff16146109c8576305a39a8085858360ff16818110612214576122146152de565b90506020020135111561223a57604051633821834560e01b815260040160405180910390fd5b60006122476001846150be565b8260ff161461228857606488888460ff16818110612267576122676152de565b905060200201358a612279919061521b565b6122839190615248565b612292565b612292848a6150be565b6001600160a01b038b16600090815260fb60205260409081902081516060810190925291925080888860ff87168181106122ce576122ce6152de565b90506020020135815260200183815260200188888660ff168181106122f5576122f56152de565b905060200201354261230791906150ab565b90528154600181810184556000938452602093849020835160039093020191825592820151928101929092556040015160029091015561234781856150ab565b9350508061235490615438565b90506121f0565b60006123678484611981565b90506000198114610e5057818110156123c25760405162461bcd60e51b815260206004820152601d60248201527f45524332303a20696e73756666696369656e7420616c6c6f77616e63650000006044820152606401610b30565b610e508484848403611c09565b6001600160a01b0383166124335760405162461bcd60e51b815260206004820152602560248201527f45524332303a207472616e736665722066726f6d20746865207a65726f206164604482015264647265737360d81b6064820152608401610b30565b6001600160a01b0382166124955760405162461bcd60e51b815260206004820152602360248201527f45524332303a207472616e7366657220746f20746865207a65726f206164647260448201526265737360e81b6064820152608401610b30565b6124a08383836134a1565b6001600160a01b038316600090815260976020526040902054818110156125185760405162461bcd60e51b815260206004820152602660248201527f45524332303a207472616e7366657220616d6f756e7420657863656564732062604482015265616c616e636560d01b6064820152608401610b30565b6001600160a01b038085166000818152609760205260408082208686039055928616808252908390208054860190559151600080516020615769833981519152906125669086815260200190565b60405180910390a3610e5084848461350a565b60006602ed57011e0000601f19360135811614806125aa576040516373bb264f60e11b815260040160405180910390fd5b600036602911156125ce57604051632bcb7bc560e11b815260040160405180910390fd5b50602819360135600060096125e9600362ffffff85166150ab565b6125f391906150ab565b9050366126016002836150ab565b11156109ea5760405163c30a7bd760e01b815260040160405180910390fd5b60008061262e6020846150ab565b90503681111561265157604051632bcb7bc560e11b815260040160405180910390fd5b36033592915050565b6000806000612668846138b8565b9092509050604e61267a8260206150ab565b612684908461521b565b6107d991906150ab565b610100546040805160a0810182528781526001600160801b03878116602083019081528284018781526060840187815242608086019081529551630624e65f60e11b81529451600486015291519092166024840152905160448301525160648201529051608482015260009182916001600160a01b0390911690630c49ccbe9060a40160408051808303816000875af115801561272f573d6000803e3d6000fd5b505050506040513d601f19601f820116820180604052508101906127539190615457565b505061275f8786612ca6565b915091509550959350505050565b60ff5460408051630dfe168160e01b815290516000926001600160a01b031691630dfe16819160048083019260209291908290030181865afa1580156127b7573d6000803e3d6000fd5b505050506040513d601f19601f820116820180604052508101906119b691906150f5565b336127e4610f86565b6001600160a01b031614610e835760405162461bcd60e51b815260206004820181905260248201527f4f776e61626c653a2063616c6c6572206973206e6f7420746865206f776e65726044820152606401610b30565b606580546001600160a01b038381166001600160a01b0319831681179093556040519116919082907f8be0079c531659141344cd1fd0a4f28419497f9722a3daafe3b4186f6b6457e090600090a35050565b6000805160206157498339815191525490565b60008051602061574983398151915255565b6040805160018082528183019092526000918291906020808301908036833701905050905082816000815181106128ea576128ea6152de565b6020026020010181815250506128ff8161390f565b600081518110612911576129116152de565b6020026020010151915050919050565b6001600160a01b0382166129815760405162461bcd60e51b815260206004820152602160248201527f45524332303a206275726e2066726f6d20746865207a65726f206164647265736044820152607360f81b6064820152608401610b30565b61298d826000836134a1565b6001600160a01b03821660009081526097602052604090205481811015612a015760405162461bcd60e51b815260206004820152602260248201527f45524332303a206275726e20616d6f756e7420657863656564732062616c616e604482015261636560f01b6064820152608401610b30565b6001600160a01b0383166000818152609760209081526040808320868603905560998054879003905551858152919291600080516020615769833981519152910160405180910390a36111878360008461350a565b60006107b68261391a565b6001600160a01b03163b151590565b600054610100900460ff16612a975760405162461bcd60e51b8152600401610b309061547b565b610e836139db565b600054610100900460ff16611e5f5760405162461bcd60e51b8152600401610b309061547b565b600054610100900460ff16612aed5760405162461bcd60e51b8152600401610b309061547b565b609a612af98382615514565b50609b6111878282615514565b600054610100900460ff16610e835760405162461bcd60e51b8152600401610b309061547b565b6000808060001985870985870292508281108382030391505080600003612b665760008411612b5b57600080fd5b5082900490506109ea565b808411612b7257600080fd5b6000848688098084039381119092039190506000612b92861960016150ab565b8616958690049593849004936000819003046001019050612bb3818461521b565b909317926000612bc487600361521b565b6002189050612bd3818861521b565b612bde9060026150be565b612be8908261521b565b9050612bf4818861521b565b612bff9060026150be565b612c09908261521b565b9050612c15818861521b565b612c209060026150be565b612c2a908261521b565b9050612c36818861521b565b612c419060026150be565b612c4b908261521b565b9050612c57818861521b565b612c629060026150be565b612c6c908261521b565b9050612c78818861521b565b612c839060026150be565b612c8d908261521b565b9050612c99818661521b565b9998505050505050505050565b61010054604080516080810182528481526001600160a01b03848116602083019081526001600160801b0383850181815260608501828152955163fc6f786560e01b815294516004860152915183166024850152905181166044840152925190921660648201526000928392169063fc6f78659060840160408051808303816000875af1158015612d3b573d6000803e3d6000fd5b505050506040513d601f19601f82011682018060405250810190612d5f9190615457565b915091505b9250929050565b6000612d796103e883615248565b905080421015612db757603c612d8f42836150be565b11156108d25760405163b6b0916d60e01b815260048101829052426024820152604401610b30565b60b4612dc382426150be565b11156108d257604051630321d0b560e01b815260048101829052426024820152604401610b30565b60606000612df884613a0a565b9050600080866001600160a01b031685612e13576000612e15565b345b84604051612e2391906152a5565b60006040518083038185875af1925050503d8060008114612e60576040519150601f19603f3d011682016040523d82523d6000602084013e612e65565b606091505b5091509150612e748282613a99565b979650505050505050565b6111878363a9059cbb60e01b8484604051602401612e9e9291906152f4565b60408051601f198184030181529190526020810180516001600160e01b03166001600160e01b031990931692909217909152613b10565b6040516001600160a01b0380851660248301528316604482015260648101829052610e509085906323b872dd60e01b90608401612e9e565b612f1f82612f1a84610e56565b612921565b61010054604051630852cd8d60e31b8152600481018390526001600160a01b03909116906342966c6890602401600060405180830381600087803b158015612f6657600080fd5b505af1158015612f7a573d6000803e3d6000fd5b5050506001600160a01b03909216600090815260fc60205260408120555050565b6000806000612fa986613be5565b9050808510600081612fc457612fbf83886150be565b612fce565b612fce87846150be565b9050806064612fde60058a61521b565b612fe89190615248565b108015612ffd57506000831180612ffd575087155b1561316757600061300c610f42565b9050600083156130365761302f613024600285615248565b6305f5e10084612b2d565b9050613044565b613041600284615248565b90505b6000841561305e57613057600285615248565b9050613085565b8261306a600286615248565b613078906305f5e10061521b565b6130829190615248565b90505b60008086156130a857505060fd5460fe546001600160a01b0391821691166130be565b505060fe5460fd546001600160a01b0391821691165b610101546130da906001600160a01b0384811691166000613c0b565b610101546130f5906001600160a01b03848116911686613c0b565b6131258282866127108f61271061310c91906150be565b613116908961521b565b6131209190615248565b613d0f565b90945092508661314857613139838e6150ab565b613143858e6150be565b61315c565b613152848e6150be565b61315c848e6150ab565b909d509b5050505050505b50959694955050505050565b60fe54600090600160a01b900460020b61318d81846155d3565b6107b691906153ec565b6001600160a01b03808816600090815260fc60205260408120546101005460fd54919383926131cb92908216911689613ef9565b6101005460fe546131e9916001600160a01b03918216911688613ef9565b610102546000908190600160a01b900460ff1661320757888861320a565b87895b610102549193509150600160a01b900460ff1661322857868661322b565b85875b9097509550600085900361337e57610100546040805161016081019091526001600160a01b03909116906388316456908061326461276d565b6001600160a01b0316815260200161327a613f92565b6001600160a01b0316815260200160ff60159054906101000a900462ffffff1662ffffff1681526020018e60020b81526020018d60020b81526020018581526020018481526020018a8152602001898152602001306001600160a01b03168152602001428152506040518263ffffffff1660e01b81526004016132fd919061560d565b6080604051808303816000875af115801561331c573d6000803e3d6000fd5b505050506040513d601f19601f8201168201806040525081019061334091906156c3565b9091508095508196508297505050508460fc60008e6001600160a01b03166001600160a01b0316815260200190815260200160002081905550613445565b610100546040805160c08101825287815260208101858152818301858152606083018c8152608084018c81524260a08601908152955163219f5d1760e01b8152945160048601529251602485015290516044840152516064830152516084820152905160a48201526001600160a01b039091169063219f5d179060c4016060604051808303816000875af115801561341a573d6000803e3d6000fd5b505050506040513d601f19601f8201168201806040525081019061343e91906156ff565b9095509350505b61010254600160a01b900460ff161561345c579192915b60006134688585613fdc565b90506134748d82613ff4565b613492308e613483888e6150be565b61348d888e6150be565b611e65565b50505050505050505050505050565b6001600160a01b038316158015906134c157506001600160a01b03821615155b156111875760006134d18461176c565b905060006134de85610e56565b90506134ea82846150ab565b811015611e5857604051631e9acf1760e31b815260040160405180910390fd5b6001600160a01b0383161580159061352a57506001600160a01b03821615155b1561118757600061353a84610e56565b6001600160a01b038416600090815260fc6020526040902054909150156135745760405163433060d560e11b815260040160405180910390fd5b6001600160a01b038416600090815260fc60205260409020546135978186612ca6565b5050816000036135d3576001600160a01b03808616600081815260fc6020526040808220805494891683529082209390935590815290556138a6565b6101005460405163133f757160e31b815260048101839052600091829182916001600160a01b0316906399fbab889060240161018060405180830381865afa158015613623573d6000803e3d6000fd5b505050506040513d601f19601f82011682018060405250810190613647919061513f565b50505050975097509750505050505060008061368f86898961366991906150ab565b61367c8b6001600160801b03881661521b565b6136869190615248565b3060008061268e565b6101005491935091506136be906001600160a01b0316836136ae61276d565b6001600160a01b03169190613ef9565b610100546136d8906001600160a01b0316826136ae613f92565b61010054604080516101608101909152600091829182916001600160a01b0316906388316456908061370861276d565b6001600160a01b0316815260200161371e613f92565b6001600160a01b0316815260200160ff60159054906101000a900462ffffff1662ffffff1681526020018b60020b81526020018a60020b81526020018881526020018781526020016000815260200160008152602001306001600160a01b03168152602001428152506040518263ffffffff1660e01b81526004016137a3919061560d565b6080604051808303816000875af11580156137c2573d6000803e3d6000fd5b505050506040513d601f19601f820116820180604052508101906137e691906156c3565b9350935050925081856137f991906150be565b945061380581856150be565b60fd549094506001600160a01b031661381c61276d565b6001600160a01b03161461382f57929392905b600061383b8383613fdc565b9050613856308e61384c868a6150be565b61348d868a6150be565b808c11156138715761386c8d612f1a838f6150be565b613884565b6138848d61387f8e846150be565b613ff4565b5050506001600160a01b038a16600090815260fc602052604090205550505050505b6138af85611d86565b611e5884611d86565b6000808080806138c96041876150ab565b905060006138e26138db6020846150ab565b36906140b7565b8035945090506138f38160036140b7565b62ffffff9490941697933563ffffffff16965092945050505050565b60606107b6826140c3565b6000815160000361393e57604051639e198af960e01b815260040160405180910390fd5b61394782614285565b6000600283516139579190615248565b9050600283516139679190615734565b6000036139c35760006139b68461397f6001856150be565b8151811061398f5761398f6152de565b60200260200101518584815181106139a9576139a96152de565b60200260200101516142cd565b90506107d9600282615248565b828181518110612911576129116152de565b50919050565b600054610100900460ff16613a025760405162461bcd60e51b8152600401610b309061547b565b610e836142d9565b80516060906000613a19614309565b90506000613a2782846150ab565b905036821115613a4a57604051632bcb7bc560e11b815260040160405180910390fd5b6060604051905081815285602001848101826020015b81831015613a78578251815260209283019201613a60565b50505082833603856020018301379190920181016020016040529392505050565b6060826139d5578151600003613ac257604051632b3ff13d60e11b815260040160405180910390fd5b602082015162461bcd60e51b148015613af5576040516301efd04f60e31b81526044840190610b30908290600401614a73565b8260405163fd36fde360e01b8152600401610b309190614a73565b6000613b65826040518060400160405280602081526020017f5361666545524332303a206c6f772d6c6576656c2063616c6c206661696c6564815250856001600160a01b03166143749092919063ffffffff16565b9050805160001480613b86575080806020019051810190613b8691906152c1565b6111875760405162461bcd60e51b815260206004820152602a60248201527f5361666545524332303a204552433230206f7065726174696f6e20646964206e6044820152691bdd081cdd58d8d9595960b21b6064820152608401610b30565b600080613bf0610f42565b90506305f5e100613c01828561521b565b6109ea9190615248565b801580613c855750604051636eb1769f60e11b81523060048201526001600160a01b03838116602483015284169063dd62ed3e90604401602060405180830381865afa158015613c5f573d6000803e3d6000fd5b505050506040513d601f19601f82011682018060405250810190613c83919061530d565b155b613cf05760405162461bcd60e51b815260206004820152603660248201527f5361666545524332303a20617070726f76652066726f6d206e6f6e2d7a65726f60448201527520746f206e6f6e2d7a65726f20616c6c6f77616e636560501b6064820152608401610b30565b6111878363095ea7b360e01b8484604051602401612e9e9291906152f4565b6000806000866001600160a01b03166370a08231306040518263ffffffff1660e01b8152600401613d409190614a0f565b602060405180830381865afa158015613d5d573d6000803e3d6000fd5b505050506040513d601f19601f82011682018060405250810190613d81919061530d565b610101546040805160e0810182526001600160a01b038b811682528a81166020830190815260ff54600160a81b900462ffffff9081168486019081523060608601908152608086018e815260a087018e8152600060c0890190815298516304e45aaf60e01b8152975187166004890152945186166024880152915190921660448601529051831660648501525160848401525160a48301529151821660c482015292935016906304e45aaf9060e4016020604051808303816000875af1158015613e4f573d6000803e3d6000fd5b505050506040513d601f19601f82011682018060405250810190613e73919061530d565b6040516370a0823160e01b81529092506001600160a01b038816906370a0823190613ea2903090600401614a0f565b602060405180830381865afa158015613ebf573d6000803e3d6000fd5b505050506040513d601f19601f82011682018060405250810190613ee3919061530d565b613eed90826150be565b92505094509492505050565b600063095ea7b360e01b8383604051602401613f169291906152f4565b60408051601f198184030181529190526020810180516001600160e01b03166001600160e01b0319909316929092179091529050613f548482614383565b610e50576040516001600160a01b038416602482015260006044820152613f8890859063095ea7b360e01b90606401612e9e565b610e508482613b10565b60ff546040805163d21220a760e01b815290516000926001600160a01b03169163d21220a79160048083019260209291908290030181865afa1580156127b7573d6000803e3d6000fd5b600080613fe884613be5565b90506107d981846150ab565b6001600160a01b03821661404a5760405162461bcd60e51b815260206004820152601f60248201527f45524332303a206d696e7420746f20746865207a65726f2061646472657373006044820152606401610b30565b614056600083836134a1565b806099600082825461406891906150ab565b90915550506001600160a01b038216600081815260976020908152604080832080548601905551848152600080516020615769833981519152910160405180910390a36108d26000838361350a565b60006109ea82846150be565b6060600082516001600160401b038111156140e0576140e0614ac7565b604051908082528060200260200182016040528015614109578160200160208202803683370190505b509050600083516001600160401b0381111561412757614127614ac7565b604051908082528060200260200182016040528015614150578160200160208202803683370190505b509050600084516001600160401b0381111561416e5761416e614ac7565b6040519080825280602002602001820160405280156141a157816020015b606081526020019060019003908161418c5790505b50905060005b85518110156141ff57604080516003808252608082019092529060208201606080368337019050508282815181106141e1576141e16152de565b602002602001018190525080806141f7906150d1565b9150506141a7565b50600061420a612579565b9050600061421782612620565b61ffff1690506142286002836150ab565b60405190925060005b8281101561426e5760006142488a8989898961441c565b905061425481866150ab565b945082604052508080614266906150d1565b915050614231565b5061427984876146a8565b98975050505050505050565b8051602082016020820281019150805b82811015610e5057815b818110156142c45781518151808210156142ba578084528183525b505060200161429f565b50602001614295565b60006109ea82846150ab565b600054610100900460ff166143005760405162461bcd60e51b8152600401610b309061547b565b610e833361283a565b600080614314612579565b9050600061432182612620565b61ffff1690506143326002836150ab565b915060005b8181101561436c57600061434a8461265a565b905061435681856150ab565b9350508080614364906150d1565b915050614337565b509092915050565b60606107d984846000856147c0565b6000806000846001600160a01b0316846040516143a091906152a5565b6000604051808303816000865af19150503d80600081146143dd576040519150601f19603f3d011682016040523d82523d6000602084013e6143e2565b606091505b509150915081801561440c57508051158061440c57508080602001905181019061440c91906152c1565b8015611763575061176385612a61565b60008060008061442b856138b8565b909250905060008080606081600d61444e6144476020896150ab565b8990614890565b61445891906150ab565b9050600061446a6138db60688d6150ab565b905060006144878361447d60418f6150ab565b6138db91906150ab565b905061449383826144a6565b93508260208501209450813596506144ca565b60408051838152602081850181019092526000910183838237601f19019392505050565b6144db8765ffffffffffff16611c00565b6144ef856144ea60418f6150ab565b61489c565b95506144fa86610a37565b60ff1699505050505050505060008060005b848110156146825761451f888583614914565b909350915060005b8c5181101561466f578c8181518110614542576145426152de565b6020026020010151840361465d5760008b8281518110614564576145646152de565b6020026020010151905061457d81896001901b16151590565b1580156145a65750600360ff168d838151811061459c5761459c6152de565b6020026020010151105b15614657578c82815181106145bd576145bd6152de565b6020026020010180518091906145d2906150d1565b81525050838b83815181106145e9576145e96152de565b602002602001015160018f8581518110614605576146056152de565b602002602001015161461791906150be565b81518110614627576146276152de565b60209081029190910101526001881b81178c838151811061464a5761464a6152de565b6020026020010181815250505b5061466f565b80614667816150d1565b915050614527565b508061467a816150d1565b91505061450c565b5050508160208261469391906150ab565b61469d919061521b565b612c9990604e6150ab565b6060600083516001600160401b038111156146c5576146c5614ac7565b6040519080825280602002602001820160405280156146ee578160200160208202803683370190505b509050600360005b85518110156147b65781858281518110614712576147126152de565b6020026020010151101561475f57848181518110614732576147326152de565b602002602001015182604051632b13aef560e01b8152600401610b30929190918252602082015260400190565b6000614783878381518110614776576147766152de565b6020026020010151611215565b905080848381518110614798576147986152de565b602090810291909101015250806147ae816150d1565b9150506146f6565b5090949350505050565b6060824710156148215760405162461bcd60e51b815260206004820152602660248201527f416464726573733a20696e73756666696369656e742062616c616e636520666f6044820152651c8818d85b1b60d21b6064820152608401610b30565b600080866001600160a01b0316858760405161483d91906152a5565b60006040518083038185875af1925050503d806000811461487a576040519150601f19603f3d011682016040523d82523d6000602084013e61487f565b606091505b5091509150612e7487838387614973565b60006109ea828461521b565b60408051600080825260208083018085528690523685900380850135831a948401859052803560608501819052910135608084018190529193909260019060a0016020604051602081039080840390855afa1580156148ff573d6000803e3d6000fd5b5050604051601f190151979650505050505050565b60008080614923604e876150ab565b905060006149506149496149386020896150ab565b6149438860016150ab565b90614890565b83906142cd565b9050600061495e36836140b7565b80359960209091013598509650505050505050565b606083156149e05782516000036149d95761498d85612a61565b6149d95760405162461bcd60e51b815260206004820152601d60248201527f416464726573733a2063616c6c20746f206e6f6e2d636f6e74726163740000006044820152606401610b30565b50816107d9565b6107d983838151156149f55781518083602001fd5b8060405162461bcd60e51b8152600401610b309190614a73565b6001600160a01b0391909116815260200190565b60005b83811015614a3e578181015183820152602001614a26565b50506000910152565b60008151808452614a5f816020860160208601614a23565b601f01601f19169290920160200192915050565b6020815260006109ea6020830184614a47565b6001600160a01b0381168114610f1457600080fd5b60008060408385031215614aae57600080fd5b8235614ab981614a86565b946020939093013593505050565b634e487b7160e01b600052604160045260246000fd5b604051601f8201601f191681016001600160401b0381118282101715614b0557614b05614ac7565b604052919050565b60006001600160401b03831115614b2657614b26614ac7565b614b39601f8401601f1916602001614add565b9050828152838383011115614b4d57600080fd5b828260208301376000602084830101529392505050565b60008060008060808587031215614b7a57600080fd5b8435614b8581614a86565b93506020850135614b9581614a86565b92506040850135915060608501356001600160401b03811115614bb757600080fd5b8501601f81018713614bc857600080fd5b614bd787823560208401614b0d565b91505092959194509250565b60008060408385031215614bf657600080fd5b50508035926020909101359150565b60008083601f840112614c1757600080fd5b5081356001600160401b03811115614c2e57600080fd5b6020830191508360208260051b8501011115612d6457600080fd5b8060020b8114610f1457600080fd5b8035610b3981614c49565b600080600080600080600080600060e08a8c031215614c8157600080fd5b8935614c8c81614a86565b985060208a01356001600160401b0380821115614ca857600080fd5b614cb48d838e01614c05565b909a50985060408c0135915080821115614ccd57600080fd5b50614cda8c828d01614c05565b90975095505060608a0135935060808a0135925060a08a0135614cfc81614c49565b915060c08a0135614d0c81614c49565b809150509295985092959850929598565b600060208284031215614d2f57600080fd5b81356109ea81614a86565b600080600060608486031215614d4f57600080fd5b8335614d5a81614a86565b92506020840135614d6a81614a86565b929592945050506040919091013590565b6001600160a01b03169052565b60008060008060808587031215614d9e57600080fd5b843593506020850135614db081614c49565b92506040850135614dc081614c49565b9396929550929360600135925050565b600080600060608486031215614de557600080fd5b505081359360208301359350604090920135919050565b60006020808385031215614e0f57600080fd5b82356001600160401b0380821115614e2657600080fd5b818501915085601f830112614e3a57600080fd5b813581811115614e4c57614e4c614ac7565b8060051b9150614e5d848301614add565b8181529183018401918481019088841115614e7757600080fd5b938501935b8385101561427957843582529385019390850190614e7c565b62ffffff81168114610f1457600080fd5b8035610b3981614e95565b8035610b3981614a86565b600080600080600080600080610100898b031215614ed957600080fd5b8835614ee481614a86565b97506020890135614ef481614a86565b965060408901356001600160401b03811115614f0f57600080fd5b8901601f81018b13614f2057600080fd5b614f2f8b823560208401614b0d565b965050614f3e60608a01614ea6565b9450614f4c60808a01614c58565b9350614f5a60a08a01614eb1565b9250614f6860c08a01614eb1565b9150614f7660e08a01614eb1565b90509295985092959890939650565b60008060408385031215614f9857600080fd5b8235614fa381614a86565b91506020830135614fb381614a86565b809150509250929050565b8015158114610f1457600080fd5b600080600080600080600080610100898b031215614fe957600080fd5b8835614ff481614c49565b9750602089013561500481614c49565b965060408901359550606089013594506080890135935060a0890135925060c089013561503081614fbe565b8092505060e089013590509295985092959890939650565b60006020828403121561505a57600080fd5b5035919050565b600181811c9082168061507557607f821691505b6020821081036139d557634e487b7160e01b600052602260045260246000fd5b634e487b7160e01b600052601160045260246000fd5b808201808211156107b6576107b6615095565b818103818111156107b6576107b6615095565b6000600182016150e3576150e3615095565b5060010190565b8051610b3981614a86565b60006020828403121561510757600080fd5b81516109ea81614a86565b8051610b3981614e95565b8051610b3981614c49565b80516001600160801b0381168114610b3957600080fd5b6000806000806000806000806000806000806101808d8f03121561516257600080fd5b8c516001600160601b038116811461517957600080fd5b9b5061518760208e016150ea565b9a5061519560408e016150ea565b99506151a360608e016150ea565b98506151b160808e01615112565b97506151bf60a08e0161511d565b96506151cd60c08e0161511d565b95506151db60e08e01615128565b94506101008d015193506101208d015192506151fa6101408e01615128565b91506152096101608e01615128565b90509295989b509295989b509295989b565b80820281158282048414176107b6576107b6615095565b634e487b7160e01b600052601260045260246000fd5b60008261525757615257615232565b500490565b805160ff81168114610b3957600080fd5b60006020828403121561527f57600080fd5b6109ea8261525c565b60006020828403121561529a57600080fd5b81516109ea81614c49565b600082516152b7818460208701614a23565b9190910192915050565b6000602082840312156152d357600080fd5b81516109ea81614fbe565b634e487b7160e01b600052603260045260246000fd5b6001600160a01b03929092168252602082015260400190565b60006020828403121561531f57600080fd5b5051919050565b805161ffff81168114610b3957600080fd5b600080600080600080600060e0888a03121561535357600080fd5b875161535e81614a86565b602089015190975061536f81614c49565b955061537d60408901615326565b945061538b60608901615326565b935061539960808901615326565b92506153a760a0890161525c565b915060c08801516153b781614fbe565b8091505092959891949750929550565b600281810b9083900b01627fffff8113627fffff19821217156107b6576107b6615095565b60008260020b8260020b028060020b915080821461540c5761540c615095565b5092915050565b600282810b9082900b03627fffff198112627fffff821317156107b6576107b6615095565b600060ff821660ff810361544e5761544e615095565b60010192915050565b6000806040838503121561546a57600080fd5b505080516020909101519092909150565b6020808252602b908201527f496e697469616c697a61626c653a20636f6e7472616374206973206e6f74206960408201526a6e697469616c697a696e6760a81b606082015260800190565b601f82111561118757600081815260208120601f850160051c810160208610156154ed5750805b601f850160051c820191505b8181101561550c578281556001016154f9565b505050505050565b81516001600160401b0381111561552d5761552d614ac7565b6155418161553b8454615061565b846154c6565b602080601f831160018114615576576000841561555e5750858301515b600019600386901b1c1916600185901b17855561550c565b600085815260208120601f198616915b828110156155a557888601518255948401946001909101908401615586565b50858210156155c35787850151600019600388901b60f8161c191681555b5050505050600190811b01905550565b60008160020b8360020b806155ea576155ea615232565b627fffff1982146000198214161561560457615604615095565b90059392505050565b600061016082019050615621828451614d7b565b60208301516156336020840182614d7b565b50604083015161564a604084018262ffffff169052565b50606083015161565f606084018260020b9052565b506080830151615674608084018260020b9052565b5060a083015160a083015260c083015160c083015260e083015160e0830152610100808401518184015250610120808401516156b282850182614d7b565b505061014092830151919092015290565b600080600080608085870312156156d957600080fd5b845193506156e960208601615128565b6040860151606090960151949790965092505050565b60008060006060848603121561571457600080fd5b61571d84615128565b925060208401519150604084015190509250925092565b60008261574357615743615232565b50069056fe63a0d9df49fae3f1b9d24f8dc819a568c429a1b11d0d8e9de63df53a0194acb2ddf252ad1be2c89b69c2b068fc378daa952ba7f163c4a11628f55a4df523b3efa264697066735822122085403d0b113e74bc71e8638238f3657672cf6b872ad61fafd8e48746f59f8c3264736f6c63430008110033",
  "devdoc": {
    "kind": "dev",
    "methods": {
      "aggregateValues(uint256[])": {
        "details": "This function may be overridden by the child consumer contract. It should aggregate values from different signers to a single uint value. By default, it calculates the median value",
        "params": {
          "values": "An array of uint256 values from different signers"
        },
        "returns": {
          "_0": "Result of the aggregation in the form of a single number"
        }
      },
      "allowance(address,address)": {
        "details": "See {IERC20-allowance}."
      },
      "approve(address,uint256)": {
        "details": "See {IERC20-approve}. NOTE: If `amount` is the maximum `uint256`, the allowance is not updated on `transferFrom`. This is semantically equivalent to an infinite approval. Requirements: - `spender` cannot be the zero address."
      },
      "balanceOf(address)": {
        "details": "See {IERC20-balanceOf}."
      },
      "decimals()": {
        "details": "Returns the number of decimals used to get its user representation. For example, if `decimals` equals `2`, a balance of `505` tokens should be displayed to a user as `5.05` (`505 / 10 ** 2`). Tokens usually opt for a value of 18, imitating the relationship between Ether and Wei. This is the default value returned by this function, unless it's overridden. NOTE: This information is only used for _display_ purposes: it in no way affects any of the arithmetic of the contract, including {IERC20-balanceOf} and {IERC20-transfer}."
      },
      "decreaseAllowance(address,uint256)": {
        "details": "Atomically decreases the allowance granted to `spender` by the caller. This is an alternative to {approve} that can be used as a mitigation for problems described in {IERC20-approve}. Emits an {Approval} event indicating the updated allowance. Requirements: - `spender` cannot be the zero address. - `spender` must have allowance for the caller of at least `subtractedValue`."
      },
      "deposit(int24,int24,uint256,uint256,uint256,uint256,bool,uint256)": {
        "details": "Users can use deposit function for depositing tokens to the specific bin.",
        "params": {
          "amountX": "The amount of token X to deposit.",
          "amountY": "The amount of token Y to deposit.",
          "desiredAmountX": "The desired amount of token X to deposit.",
          "desiredAmountY": "The desired amount of token Y to deposit.",
          "isRebalance": "Rebalance the existing position with deposit.",
          "swapSlippage": "Slippage for the rebalance.",
          "tickDesired": "The tick that user wants to add liquidity from",
          "tickSlippage": "The tick slippage that are allowed to slip"
        }
      },
      "getDataServiceId()": {
        "details": "This function must be implemented by the child consumer contract. It should return dataServiceId which DataServiceWrapper will use if not provided explicitly . If not overridden, value will always have to be provided explicitly in DataServiceWrapper.",
        "returns": {
          "_0": "dataServiceId being consumed by contract"
        }
      },
      "getFullyVestedLockedBalance(address)": {
        "details": "Returns the fully vested locked balance for an account.Full business logic description can be found in Pool::getFullyVestedLockedBalance() docstring",
        "params": {
          "account": "The address of the account."
        },
        "returns": {
          "fullyVestedBalance": "Fully vested locked balance"
        }
      },
      "getLockedBalance(address)": {
        "details": "Returns the total locked balance of an account.",
        "params": {
          "account": "The address of the account."
        },
        "returns": {
          "_0": "The total locked balance of the account."
        }
      },
      "getUniqueSignersThreshold()": {
        "details": "This function should be overridden by the child consumer contract.",
        "returns": {
          "_0": "The minimum required value of unique authorised signers"
        }
      },
      "getUserValueInTokenY(address)": {
        "details": "Returns the estimated USD value of the user position",
        "params": {
          "user": "User Address"
        },
        "returns": {
          "_0": "Total Value in tokenY amount for the user's position."
        }
      },
      "getUserValueInTokenY(address,uint256)": {
        "details": "Returns the estimated USD value of the user position",
        "params": {
          "poolPrice": "Pool Price or oracle price for calculating proper token amount",
          "user": "User Address"
        },
        "returns": {
          "amountY": "Total Value in tokenY amount for the user's position."
        }
      },
      "increaseAllowance(address,uint256)": {
        "details": "Atomically increases the allowance granted to `spender` by the caller. This is an alternative to {approve} that can be used as a mitigation for problems described in {IERC20-approve}. Emits an {Approval} event indicating the updated allowance. Requirements: - `spender` cannot be the zero address."
      },
      "initialize(address,address,string,uint24,int24,address,address,address)": {
        "details": "Initializer of the contract.",
        "params": {
          "deltaId_": "Delta id for tick lower and tick upper",
          "feeTier_": "Fee Tier of Uniswap V3 Pool",
          "name_": "The name of the SPrime token. ex: PRIME-USDC LP",
          "positionManager_": "Uniswap v3 NonfungiblePositionManager contract",
          "swapRouter_": "Uniswap V3 Swap Router contract",
          "tokenX_": "The address of the token X.",
          "tokenY_": "The address of the token Y.",
          "uniV3Factory_": "Uniswap V3 Factory contract"
        }
      },
      "lockBalance(uint256,uint256)": {
        "details": "Locks a specified amount of balance for a specified lock period.",
        "params": {
          "amount": "The amount of balance to be locked.",
          "lockPeriod": "The duration for which the balance will be locked."
        }
      },
      "migrateLiquidity(uint256,int24,int24,uint256)": {
        "details": "Users can use deposit function for depositing tokens to the specific bin.",
        "params": {
          "swapSlippage": "Slippage for the rebalance.",
          "tickDesired": "The tick that user wants to add liquidity from",
          "tickSlippage": "The tick slippage that are allowed to slip",
          "tokenId": "Token ID from UniswapPositionManager"
        }
      },
      "mintForUserAndLock(address,uint256[],uint256[],uint256,uint256,int24,int24)": {
        "details": "Users can use deposit function for depositing tokens to the specific bin.",
        "params": {
          "amountX": "The amount of token X to deposit.",
          "amountY": "The amount of token Y to deposit.",
          "lockPeriods": "Lock period to Lock for each amount",
          "percentForLocks": "sPrime amount % to lock",
          "tickDesired": "The tick that user wants to add liquidity from",
          "tickSlippage": "Tick slippage from the current tick.",
          "user": "The active id that user wants to add liquidity from"
        }
      },
      "name()": {
        "details": "Returns the name of the token."
      },
      "onERC721Received(address,address,uint256,bytes)": {
        "details": "See {IERC721Receiver-onERC721Received}. Always returns `IERC721Receiver.onERC721Received.selector`."
      },
      "owner()": {
        "details": "Returns the address of the current owner."
      },
      "renounceOwnership()": {
        "details": "Leaves the contract without owner. It will not be possible to call `onlyOwner` functions. Can only be called by the current owner. NOTE: Renouncing ownership will leave the contract without an owner, thereby disabling any functionality that is only available to the owner."
      },
      "symbol()": {
        "details": "Returns the symbol of the token, usually a shorter version of the name."
      },
      "tickInRange(address)": {
        "details": "Check if the tick is in the user position range",
        "params": {
          "user": "User Address."
        },
        "returns": {
          "status": "tick status"
        }
      },
      "totalSupply()": {
        "details": "See {IERC20-totalSupply}."
      },
      "transfer(address,uint256)": {
        "details": "See {IERC20-transfer}. Requirements: - `to` cannot be the zero address. - the caller must have a balance of at least `amount`."
      },
      "transferFrom(address,address,uint256)": {
        "details": "See {IERC20-transferFrom}. Emits an {Approval} event indicating the updated allowance. This is not required by the EIP. See the note at the beginning of {ERC20}. NOTE: Does not update the allowance if the current allowance is the maximum `uint256`. Requirements: - `from` and `to` cannot be the zero address. - `from` must have a balance of at least `amount`. - the caller must have allowance for ``from``'s tokens of at least `amount`."
      },
      "validateTimestamp(uint256)": {
        "details": "This function may be overridden by the child consumer contract. It should validate the timestamp against the current time (block.timestamp) It should revert with a helpful message if the timestamp is not valid",
        "params": {
          "receivedTimestampMilliseconds": "Timestamp extracted from calldata"
        }
      },
      "withdraw(uint256,uint256,uint256)": {
        "details": "Users can use withdraw function for withdrawing their share.",
        "params": {
          "share": "Amount to withdraw"
        }
      }
    },
    "version": 1
  },
  "userdoc": {
    "kind": "user",
    "methods": {},
    "version": 1
  },
  "storageLayout": {
    "storage": [
      {
        "astId": 138,
        "contract": "contracts/token/sPrimeUniswap.sol:sPrimeUniswap",
        "label": "_initialized",
        "offset": 0,
        "slot": "0",
        "type": "t_uint8"
      },
      {
        "astId": 141,
        "contract": "contracts/token/sPrimeUniswap.sol:sPrimeUniswap",
        "label": "_initializing",
        "offset": 1,
        "slot": "0",
        "type": "t_bool"
      },
      {
        "astId": 314,
        "contract": "contracts/token/sPrimeUniswap.sol:sPrimeUniswap",
        "label": "_status",
        "offset": 0,
        "slot": "1",
        "type": "t_uint256"
      },
      {
        "astId": 383,
        "contract": "contracts/token/sPrimeUniswap.sol:sPrimeUniswap",
        "label": "__gap",
        "offset": 0,
        "slot": "2",
        "type": "t_array(t_uint256)49_storage"
      },
      {
        "astId": 1535,
        "contract": "contracts/token/sPrimeUniswap.sol:sPrimeUniswap",
        "label": "__gap",
        "offset": 0,
        "slot": "51",
        "type": "t_array(t_uint256)50_storage"
      },
      {
        "astId": 10,
        "contract": "contracts/token/sPrimeUniswap.sol:sPrimeUniswap",
        "label": "_owner",
        "offset": 0,
        "slot": "101",
        "type": "t_address"
      },
      {
        "astId": 130,
        "contract": "contracts/token/sPrimeUniswap.sol:sPrimeUniswap",
        "label": "__gap",
        "offset": 0,
        "slot": "102",
        "type": "t_array(t_uint256)49_storage"
      },
      {
        "astId": 403,
        "contract": "contracts/token/sPrimeUniswap.sol:sPrimeUniswap",
        "label": "_balances",
        "offset": 0,
        "slot": "151",
        "type": "t_mapping(t_address,t_uint256)"
      },
      {
        "astId": 409,
        "contract": "contracts/token/sPrimeUniswap.sol:sPrimeUniswap",
        "label": "_allowances",
        "offset": 0,
        "slot": "152",
        "type": "t_mapping(t_address,t_mapping(t_address,t_uint256))"
      },
      {
        "astId": 411,
        "contract": "contracts/token/sPrimeUniswap.sol:sPrimeUniswap",
        "label": "_totalSupply",
        "offset": 0,
        "slot": "153",
        "type": "t_uint256"
      },
      {
        "astId": 413,
        "contract": "contracts/token/sPrimeUniswap.sol:sPrimeUniswap",
        "label": "_name",
        "offset": 0,
        "slot": "154",
        "type": "t_string_storage"
      },
      {
        "astId": 415,
        "contract": "contracts/token/sPrimeUniswap.sol:sPrimeUniswap",
        "label": "_symbol",
        "offset": 0,
        "slot": "155",
        "type": "t_string_storage"
      },
      {
        "astId": 995,
        "contract": "contracts/token/sPrimeUniswap.sol:sPrimeUniswap",
        "label": "__gap",
        "offset": 0,
        "slot": "156",
        "type": "t_array(t_uint256)45_storage"
      },
      {
        "astId": 1163,
        "contract": "contracts/token/sPrimeUniswap.sol:sPrimeUniswap",
        "label": "__gap",
        "offset": 0,
        "slot": "201",
        "type": "t_array(t_uint256)50_storage"
      },
      {
        "astId": 7187,
        "contract": "contracts/token/sPrimeUniswap.sol:sPrimeUniswap",
        "label": "locks",
        "offset": 0,
        "slot": "251",
        "type": "t_mapping(t_address,t_array(t_struct(LockDetails)4563_storage)dyn_storage)"
      },
      {
        "astId": 7191,
        "contract": "contracts/token/sPrimeUniswap.sol:sPrimeUniswap",
        "label": "userTokenId",
        "offset": 0,
        "slot": "252",
        "type": "t_mapping(t_address,t_uint256)"
      },
      {
        "astId": 7194,
        "contract": "contracts/token/sPrimeUniswap.sol:sPrimeUniswap",
        "label": "tokenX",
        "offset": 0,
        "slot": "253",
        "type": "t_contract(IERC20Metadata)1639"
      },
      {
        "astId": 7197,
        "contract": "contracts/token/sPrimeUniswap.sol:sPrimeUniswap",
        "label": "tokenY",
        "offset": 0,
        "slot": "254",
        "type": "t_contract(IERC20Metadata)1639"
      },
      {
        "astId": 7199,
        "contract": "contracts/token/sPrimeUniswap.sol:sPrimeUniswap",
        "label": "tickSpacing",
        "offset": 20,
        "slot": "254",
        "type": "t_int24"
      },
      {
        "astId": 7201,
        "contract": "contracts/token/sPrimeUniswap.sol:sPrimeUniswap",
        "label": "deltaId",
        "offset": 23,
        "slot": "254",
        "type": "t_int24"
      },
      {
        "astId": 7204,
        "contract": "contracts/token/sPrimeUniswap.sol:sPrimeUniswap",
        "label": "pool",
        "offset": 0,
        "slot": "255",
        "type": "t_contract(IUniswapV3Pool)5065"
      },
      {
        "astId": 7206,
        "contract": "contracts/token/sPrimeUniswap.sol:sPrimeUniswap",
        "label": "tokenDecimals",
        "offset": 20,
        "slot": "255",
        "type": "t_uint8"
      },
      {
        "astId": 7208,
        "contract": "contracts/token/sPrimeUniswap.sol:sPrimeUniswap",
        "label": "feeTier",
        "offset": 21,
        "slot": "255",
        "type": "t_uint24"
      },
      {
        "astId": 7211,
        "contract": "contracts/token/sPrimeUniswap.sol:sPrimeUniswap",
        "label": "positionManager",
        "offset": 0,
        "slot": "256",
        "type": "t_contract(INonfungiblePositionManager)4846"
      },
      {
        "astId": 7214,
        "contract": "contracts/token/sPrimeUniswap.sol:sPrimeUniswap",
        "label": "swapRouter",
        "offset": 0,
        "slot": "257",
        "type": "t_contract(ISwapRouter)4960"
      },
      {
        "astId": 7217,
        "contract": "contracts/token/sPrimeUniswap.sol:sPrimeUniswap",
        "label": "vPrimeController",
        "offset": 0,
        "slot": "258",
        "type": "t_contract(IVPrimeController)4659"
      },
      {
        "astId": 7219,
        "contract": "contracts/token/sPrimeUniswap.sol:sPrimeUniswap",
        "label": "tokenSequence",
        "offset": 20,
        "slot": "258",
        "type": "t_bool"
      },
      {
        "astId": 7221,
        "contract": "contracts/token/sPrimeUniswap.sol:sPrimeUniswap",
        "label": "implementation",
        "offset": 0,
        "slot": "259",
        "type": "t_address"
      },
      {
        "astId": 7223,
        "contract": "contracts/token/sPrimeUniswap.sol:sPrimeUniswap",
        "label": "operator",
        "offset": 0,
        "slot": "260",
        "type": "t_address"
      }
    ],
    "types": {
      "t_address": {
        "encoding": "inplace",
        "label": "address",
        "numberOfBytes": "20"
      },
      "t_array(t_struct(LockDetails)4563_storage)dyn_storage": {
        "base": "t_struct(LockDetails)4563_storage",
        "encoding": "dynamic_array",
        "label": "struct ISPrime.LockDetails[]",
        "numberOfBytes": "32"
      },
      "t_array(t_uint256)45_storage": {
        "base": "t_uint256",
        "encoding": "inplace",
        "label": "uint256[45]",
        "numberOfBytes": "1440"
      },
      "t_array(t_uint256)49_storage": {
        "base": "t_uint256",
        "encoding": "inplace",
        "label": "uint256[49]",
        "numberOfBytes": "1568"
      },
      "t_array(t_uint256)50_storage": {
        "base": "t_uint256",
        "encoding": "inplace",
        "label": "uint256[50]",
        "numberOfBytes": "1600"
      },
      "t_bool": {
        "encoding": "inplace",
        "label": "bool",
        "numberOfBytes": "1"
      },
      "t_contract(IERC20Metadata)1639": {
        "encoding": "inplace",
        "label": "contract IERC20Metadata",
        "numberOfBytes": "20"
      },
      "t_contract(INonfungiblePositionManager)4846": {
        "encoding": "inplace",
        "label": "contract INonfungiblePositionManager",
        "numberOfBytes": "20"
      },
      "t_contract(ISwapRouter)4960": {
        "encoding": "inplace",
        "label": "contract ISwapRouter",
        "numberOfBytes": "20"
      },
      "t_contract(IUniswapV3Pool)5065": {
        "encoding": "inplace",
        "label": "contract IUniswapV3Pool",
        "numberOfBytes": "20"
      },
      "t_contract(IVPrimeController)4659": {
        "encoding": "inplace",
        "label": "contract IVPrimeController",
        "numberOfBytes": "20"
      },
      "t_int24": {
        "encoding": "inplace",
        "label": "int24",
        "numberOfBytes": "3"
      },
      "t_mapping(t_address,t_array(t_struct(LockDetails)4563_storage)dyn_storage)": {
        "encoding": "mapping",
        "key": "t_address",
        "label": "mapping(address => struct ISPrime.LockDetails[])",
        "numberOfBytes": "32",
        "value": "t_array(t_struct(LockDetails)4563_storage)dyn_storage"
      },
      "t_mapping(t_address,t_mapping(t_address,t_uint256))": {
        "encoding": "mapping",
        "key": "t_address",
        "label": "mapping(address => mapping(address => uint256))",
        "numberOfBytes": "32",
        "value": "t_mapping(t_address,t_uint256)"
      },
      "t_mapping(t_address,t_uint256)": {
        "encoding": "mapping",
        "key": "t_address",
        "label": "mapping(address => uint256)",
        "numberOfBytes": "32",
        "value": "t_uint256"
      },
      "t_string_storage": {
        "encoding": "bytes",
        "label": "string",
        "numberOfBytes": "32"
      },
      "t_struct(LockDetails)4563_storage": {
        "encoding": "inplace",
        "label": "struct ISPrime.LockDetails",
        "members": [
          {
            "astId": 4558,
            "contract": "contracts/token/sPrimeUniswap.sol:sPrimeUniswap",
            "label": "lockPeriod",
            "offset": 0,
            "slot": "0",
            "type": "t_uint256"
          },
          {
            "astId": 4560,
            "contract": "contracts/token/sPrimeUniswap.sol:sPrimeUniswap",
            "label": "amount",
            "offset": 0,
            "slot": "1",
            "type": "t_uint256"
          },
          {
            "astId": 4562,
            "contract": "contracts/token/sPrimeUniswap.sol:sPrimeUniswap",
            "label": "unlockTime",
            "offset": 0,
            "slot": "2",
            "type": "t_uint256"
          }
        ],
        "numberOfBytes": "96"
      },
      "t_uint24": {
        "encoding": "inplace",
        "label": "uint24",
        "numberOfBytes": "3"
      },
      "t_uint256": {
        "encoding": "inplace",
        "label": "uint256",
        "numberOfBytes": "32"
      },
      "t_uint8": {
        "encoding": "inplace",
        "label": "uint8",
        "numberOfBytes": "1"
      }
    }
  }
}